:1000000000000420B5020000DD020000DF02000055
:10001000E1020000E3020000E50200000000000031
:100020000000000000000000000000008504000047
:10003000E902000000000000A5040000ED0200003D
:1000400059210000EF020000EF020000EF02000063
:10005000EF020000EF020000C5210000EF020000E7
:10006000EF020000EF020000EF020000EF020000CC
:10007000EF020000EF020000EF020000EF020000BC
:10008000EF020000AD050000EF020000EF020000EB
:10009000EF020000EF020000EF020000EF0200009C
:1000A000EF020000EF020000EF020000EF0200008C
:1000B000EF020000EF02000000000000000000005E
:1000C000EF020000EF020000EF020000EF0200006C
:1000D000EF020000EF020000EF020000EF0200005C
:1000E000EF020000EF020000EF020000000000003D
:1000F00000000000EF02000000000000EF0200001E
:1001000000000000000000000000000000000000EF
:1001100000000000000000000000000000000000DF
:1001200000000000000000000000000000000000CF
:1001300000000000000000000000000000000000BF
:1001400000000000000000000000000000000000AF
:10015000000000000000000000000000000000009F
:10016000000000000000000000000000000000008F
:10017000000000000000000000000000000000007F
:10018000000000000000000000000000000000006F
:10019000000000000000000000000000000000005F
:1001A000000000000000000000000000000000004F
:1001B000000000000000000000000000000000003F
:1001C000000000000000000000000000000000002F
:1001D000000000000000000000000000000000001F
:1001E000000000000000000000000000000000000F
:1001F00000000000000000000000000000000000FF
:1002000010B5054C237833B9044B13B10448AFF350
:1002100000800123237010BD70000020000000004A
:10022000E42A000008B5034B1BB103490348AFF3B0
:10023000008008BD0000000074000020E42A0000D7
:10024000154B002B08BF134B9D46A3F5803A0021A8
:100250008B460F461348144A121A02F00DFC0F4B3E
:10026000002B00D098470E4B002B00D09847002061
:10027000002104000D000D48002802D00C48AFF307
:10028000008002F0C7FB2000290002F031FA02F0E2
:10029000ADFB00BF000008000000042000000000CB
:1002A0000000000070000020581200200000000034
:1002B000000000000649074A074B9B1A03DD043B78
:1002C000C858D050FBDC02F067FAFFF7B9FF000016
:1002D000F02A00000000002070000020FEE7FEE78A
:1002E000FEE7FEE7FEE7FEE7FEE7FEE7FEE7FEE7E6
:1002F0000A4B185C1F288ABF09494FF0A04100F043
:100300001F00D1F804350122824022EA0300134085
:10031000C1F80805C1F80C35704700BFA42A0000D9
:1003200000030050C20730B40ED483070AD54FF043
:10033000A0430C22C3F82C27C3F83027C3F860274A
:10034000C3F8642730BC70474FF0A0430322C3F8C2
:1003500034274FF40055C3F838274FF48044C3F8CE
:100360003C274FF40041C3F840274FF48032C3F8D4
:100370000855C3F80845C3F80815C3F80825D4E79D
:1003800038B5430704461CBF20F00704083400F0CA
:10039000F9FF0E4A13689BB10D4A156840F6F771D4
:1003A0002C448C4207D8A54205D21D44146001F0AC
:1003B00099F8284638BD002501F094F8284638BD44
:1003C000044B23F007031360E6E700BF8C00002016
:1003D0009010002098000020704700BF00F1080333
:1003E0004FF0FF310022C0E90333816002604360B7
:1003F000704700BF00230361704700BF43684B6034
:100400009A688A60516099600861036801330360EB
:10041000704700BF30B40D686B1C10D000F10803AA
:100420001C465B681A68AA42FAD94B6099608C60D6
:10043000616008610368013330BC03607047046980
:100440006368F2E7D0E9011203698A60416851608C
:100450005A68824204BF82685A60002202611A68A8
:10046000013A1A60186870470548006880F30888E8
:1004700062B661B6BFF34F8FBFF36F8F00DF00BF6F
:1004800000000000064B19680868B0E8F04F80F3E0
:100490000988BFF36F8F4FF0000080F31188704719
:1004A00098100020EFF30980BFF36F8F144B1A6888
:1004B0001EF0100F08BF20ED108A20E9F04F1060E9
:1004C0004DF8043D4FF0400080F31188BFF34F8F8B
:1004D000BFF36F8F01F068F94FF0000080F31188CF
:1004E00008BC19680868B0E8F04F1EF0100F08BF8C
:1004F000B0EC108A80F30988BFF36F8F704700BF9C
:1005000098100020402383F31188FEE730B46FF089
:100510000203084C40F8081C4FF0807540F8202C6E
:1005200040F8045C40F80C4C40F8243C30BC4438A3
:10053000704700BF050500000F4C08B5E02384F8A4
:10054000223000F077F80D4B0D4A00211960D4F8E5
:10055000883043F47003C4F88830536843F0404354
:100560005360236943F010032361FFF77DFF4023AD
:1005700083F31188FEE700BF00ED00E09410002037
:1005800030EF00E0402383F31188024A13680133FF
:100590001360704794100020034A1368013B1360F6
:1005A0000BB983F3118870479410002070B51D4B70
:1005B00000221A6082B01B680193019BEFF3118641
:1005C000402383F311881849184BD1F804451A6069
:1005D0001B680093009B00F0DDFE201A20F07F4393
:1005E00023F0010320F07F459BB96C1E6DB10025FF
:1005F00000F0DEFE013C631C45EA0005F8D125B1A0
:100600000B4B4FF080525A6040BF86F3118802B006
:1006100070BD01F04DFA0228E7D000F0C9FE054692
:10062000EDE700BF40110140001001400011014002
:1006300000ED00E038B5002001F02AFD0A4B0B4D1B
:100640000B491F20C3F8080501220224E020C3F84B
:1006500004232A601A60C3F8444381F811034FF45D
:1006600000330B6038BD00BF00100140081001408E
:1006700000E100E0F0B5044685B072B6314DD5F822
:10068000046501F0F9F9002842D02F4F2F4BA74203
:1006900028BF2746F21922F07F4201210020C5F829
:1006A0000813C5F8402518601A6801924FF480328B
:1006B0000198C5F80423BFF34F8F64B3244B20BFC8
:1006C000D3F80011D3F804210A43F8D01D4A1F4C77
:1006D00020494FF48030C2F80803002020602468CD
:1006E0000394039C08600968029101210298C2F8F2
:1006F0000413D2F80425921B22F07F40B8424FF435
:10070000003228BF3846C3F8802108B100F048FE07
:1007100062B605B0F0BDC5F808231C601A680D4B21
:100720000392039A1C601B680293094B029AC5F856
:1007300004134FF40032D5F80415C3F8802162B6D3
:1007400005B0F0BD00100140FDFFFF004011014069
:1007500000E100E00011014070B506460D4651B1C0
:1007600000FB01F04830FFF70BFE044658B300F1E0
:100770004803036005E04820FFF702FE044610B37B
:100780002460C4E90F65FFF7FDFED4E90F1322686A
:10079000A26001FB03F1CB1A134400200A44FF219D
:1007A000A063E36084F84410626084F8451004F1AB
:1007B0001000FFF713FE04F12400FFF70FFEFFF710
:1007C000EBFE204670BD0024204670BD2DE9F047A9
:1007D000044684B01F460192884600F12406FFF7C4
:1007E000D1FEA26BE36BDFF840939A424FF0000A10
:1007F0007CD3022F00F0E880019D002D00F01281D3
:1008000002ADBAF1000F00F0DB80FFF7C5FE00F08B
:10081000B9FDFFF7B7FE94F84430FF2B04BF002367
:1008200084F8443094F84530FF2B04BF002384F84B
:100830004530FFF7B1FE284601A901F0E3F8002892
:1008400040F0F680FFF79EFEA26BE36B9A4261D008
:10085000FFF7A2FEFFF796FE94F845506DB2002D0B
:1008600005DC12E06B1E13F0FF0F5DB20DD0636A62
:10087000304653B101F068F80028F3D001F0F6F8E3
:100880006B1E13F0FF0F5DB2F1D1FF2384F84530EA
:10089000FFF782FEFFF776FE94F844506DB2002D0C
:1008A00015DD04F1100A04E06B1E13F0FF0F5DB2BA
:1008B0000DD02369504653B101F046F80028F3D01B
:1008C00001F0D4F86B1E13F0FF0F5DB2F1D1FF23DE
:1008D00084F84430FFF760FE00F004FEFFF752FE9C
:1008E000A26BE36B9A424FF0010A82D2226CA56B95
:1008F000002A40F0E7802668002E00F0F9800135DC
:10090000A563636A002B7CD1FFF746FE012004B08B
:10091000BDE8F08704F1100AFFF73EFE019950464A
:1009200000F078FFFFF72EFE94F845506DB2002DD1
:1009300005DC12E06B1E13F0FF0F5DB20DD0636A91
:10094000304653B101F000F80028F3D001F08EF8E2
:100950006B1E13F0FF0F5DB2F1D1FF2384F8453019
:10096000FFF71AFEFFF70EFE94F844506DB2002D0B
:1009700005DC12E06B1E13F0FF0F5DB20DD0236992
:10098000504653B100F0E0FF0028F3D001F06EF8BC
:100990006B1E13F0FF0F5DB2F1D1FF2384F84430DA
:1009A000FFF7FAFD00F09EFD002897D14FF080532D
:1009B000C9F8043040BFBFF34F8FBFF36F8F8DE78F
:1009C000284601F013F820E7226CA56B002A92D08C
:1009D0004146E06802F042F8226CE36821689B1A05
:1009E0008B42E360C2F1000204D263681A44E26001
:1009F000022F84D1002D83D10123A363636A002BCE
:100A000082D004F1240000F09FFF00283FF47CAF67
:100A1000454B4FF080525A6040BFBFF34F8FBFF33A
:100A20006F8F71E7FFF7B8FD284604B0BDE8F08787
:100A3000FFF7A8FD94F845506DB2002D15DD04F1C7
:100A4000240604E06B1E13F0FF0F5DB20DD0636A45
:100A5000304653B100F078FF0028F3D001F006F8DB
:100A60006B1E13F0FF0F5DB2F1D1FF2384F8453008
:100A7000FFF792FDFFF786FD94F844506DB2002D0C
:100A800015DD04F1100604E06B1E13F0FF0F5DB2DC
:100A90000DD02369304653B100F056FF0028F3D043
:100AA00000F0E4FF6B1E13F0FF0F5DB2F1D1FF23E6
:100AB00084F84430FFF770FD00F014FD002004B00E
:100AC000BDE8F087414607BBA06801F0C7FFA368F7
:100AD000216C62680B449342A360FFF410AF0135B0
:100AE000A563636A2268A260002B3FF40DAF88E71C
:100AF0006068013500F0ECFFA563636A6660002B57
:100B00007FF47FAF002883D1FEE6E06801F0A6FF06
:100B1000226CE36821689B1A8B42E360C2F10002F9
:100B2000BFF466AF61E700BF00ED00E02DE9F043E0
:100B3000044683B016469946EFF31188402282F3AB
:100B40001188806BE26B90421ED3022B05D00020EF
:100B500088F3118803B0BDE8F08394F84550226C07
:100B6000A76B6DB232BB2368002B47D001376B1CDB
:100B7000A76335D001356DB284F84550012088F364
:100B8000118803B0BDE8F08394F84550226CA76B40
:100B90006DB2002AE7D0002B38D1A06801F05EFFCB
:100BA000A368216C62680B449342A36024BF23684E
:100BB000A360DBE7E06801F051FF226CE068216888
:100BC000801A8842E060C2F1000205D261680A44DE
:100BD000E260B9F1020FC9D1012F38BF0127C6E782
:100BE000636A002BCAD004F1240000F0ADFE002897
:100BF000C4D0002EC2D001203060A9E76068019304
:100C000000F066FF019B63600137B0E7E06801F028
:100C100025FF226CE0682168801A8842E060C2F1FA
:100C20000002D6D2D2E700BF2DE9F043044685B0DA
:100C30000F460192FFF7A6FCA56B002D40F027811F
:100C4000019B002B00F0D28002A800F0CFFEDFF85D
:100C50008C8204F12406FFF79FFC00F093FBFFF762
:100C600091FC94F84430FF2B04BF002384F84430F7
:100C700094F84530FF2B04BF002384F84530FFF77C
:100C80008BFC01A902A800F0BDFE00285BD1FFF794
:100C900079FCA36B002B40F0AF80FFF77DFC01993E
:100CA000304600F0B7FDFFF76DFC94F845506DB28B
:100CB000002D05DC12E06B1E13F0FF0F5DB20DD0AE
:100CC000636A304653B100F03FFE0028F3D000F0D5
:100CD000CDFE6B1E13F0FF0F5DB2F1D1FF2384F840
:100CE0004530FFF759FCFFF74DFC94F844506DB2C6
:100CF000002D15DD04F1100904E06B1E13F0FF0F49
:100D00005DB20DD02369484653B100F01DFE0028A6
:100D1000F3D000F0ABFE6B1E13F0FF0F5DB2F1D10C
:100D2000FF2384F84430FFF737FC00F0DBFB00289A
:100D300053D14FF08053C8F8043040BFBFF34F8FFA
:100D4000BFF36F8F49E0FFF71DFC94F845506DB27B
:100D5000002D05DC12E06B1E13F0FF0F5DB20DD00D
:100D6000636A304653B100F0EFFD0028F3D000F085
:100D70007DFE6B1E13F0FF0F5DB2F1D1FF2384F8EF
:100D80004530FFF709FCFFF7FDFB94F844506DB2C6
:100D9000002D15DD04F1100904E06B1E13F0FF0FA8
:100DA0005DB20DD02369484653B100F0CDFD002857
:100DB000F3D000F05BFE6B1E13F0FF0F5DB2F1D1BC
:100DC000FF2384F84430FFF7E7FB00F08BFBFFF7CD
:100DD000D9FBA36B53B1FFF7DFFBFFF7D3FBA56B89
:100DE000002D54D1019B002B7FF435AFFFF7D4FBCE
:100DF000002005B0BDE8F083FFF7CEFBFFF7C2FB94
:100E000094F845506DB2002D05DC12E06B1E13F016
:100E1000FF0F5DB20DD0636A304653B100F094FD10
:100E20000028F3D000F022FE6B1E13F0FF0F5DB21E
:100E3000F1D1FF2384F84530FFF7AEFBFFF7A2FBAB
:100E400094F844506DB2002D15DD04F1100904E052
:100E50006B1E13F0FF0F5DB20DD02369484653B1EE
:100E600000F072FD0028F3D000F000FE6B1E13F0BE
:100E7000FF0F5DB2F1D1FF2384F84430FFF78CFB04
:100E800000F030FBFFF77EFBA56B002DAAD0226C93
:100E900052B1E168636811449942E16024BF21685E
:100EA000E160384601F0DAFD013DA56323692BB905
:100EB000FFF772FB012005B0BDE8F08304F11000DC
:100EC00000F042FD0028F3D0044B4FF080525A60EE
:100ED00040BFBFF34F8FBFF36F8FE9E700ED00E036
:100EE000074B1A681AB19A6802B17047012210B410
:100EF00003EBC20443F8321060605DF8044B7047A6
:100F00003C12002070B504460E461546FFF73AFB2A
:100F100094F84430FF2B04BF002384F8443094F845
:100F20004530FF2B04BF002384F84530FFF734FB26
:100F3000A36B002B45D0FFF725FB94F845506DB20D
:100F4000002D15DD04F1240604E06B1E13F0FF0FE5
:100F50005DB20DD0636A304653B100F0F5FC002855
:100F6000F3D000F083FD6B1E13F0FF0F5DB2F1D1E3
:100F7000FF2384F84530FFF70FFBFFF703FB94F8DE
:100F800044506DB2002D15DD04F1100604E06B1E17
:100F900013F0FF0F5DB20DD02369304653B100F05E
:100FA000D3FC0028F3D000F061FD6B1E13F0FF0F9F
:100FB0005DB2F1D1FF2384F84430BDE87040FFF703
:100FC000EBBA2A46314604F1240000F06BFCB2E78C
:100FD0002DE9F84F9600804630460D469946FFF7BA
:100FE000CFF9002800F08A8007464820FFF7C8F9AB
:100FF0000446002800F08F80076332463846A5215A
:1010000001F03AFD2B7884F834302B78D4F830B0E6
:1010100063B16B7884F835306B783BB1AB7884F88A
:101020003630AB7813B1EB7884F837300A9D022D57
:1010300028BF02254FF0000A271DE562A563384648
:1010400084F837A0C4F83CA0043EFFF7D3F9C5F1FB
:10105000030504F118005E44FFF7CCF9C4F840A082
:10106000A56126F0070084F844A0246164624A4622
:101070004146FFF74BFA0B9B206003B11C60FFF762
:1010800081FA3F4ADFF82C81136801331360D8F8E6
:101090000030002B48D0DFF82091D9F800308BB316
:1010A000E36A384ADFF814C11668DCF800E0364815
:1010B00001252E44166005FA03F203EB830342EA8E
:1010C0000E0200EB83003946CCF80020FFF796F9BA
:1010D000FFF762FAD9F800301BB3D8F80020E36AB2
:1010E000D26A9A421DD2294B4FF080525A6040BFBB
:1010F000BFF34F8FBFF36F8F284601E04FF0FF30F3
:10110000BDE8F88FD8F80020E36AD26A9A4298BF07
:10111000C8F80040C5E73846FFF75EF94FF0FF30EA
:10112000EEE72846BDE8F88FC8F800401368012BA9
:1011300003D0E36ADFF88090B3E71348144E154DEF
:10114000DFF87490FFF74AF91348FFF747F913489F
:10115000FFF744F93046FFF741F92846FFF73EF91B
:101160000F48FFF73BF90F48FFF738F90E48FFF734
:1011700035F90E4B0E4A16601D60E36A91E700BF19
:10118000E0100020F0100020A410002000ED00E08E
:10119000F81000200C110020B8100020CC10002006
:1011A0002C1100205811002044110020A010002014
:1011B0009C1000209810002040110020F410002006
:1011C0002DE9F843F020FFF7DBF8002878D005463A
:1011D0004820FFF7D5F80446002873D0F022A52157
:1011E0000563284601F048FC0025514B636304F178
:1011F0000408266BE5624046C4E90E55FFF7FAF88D
:1012000004F11800FFF7F6F8032306F1EC002A4674
:1012100048492564A36120F00700246184F8445004
:101220006462FFF773F9444B20601C60FFF7AAF972
:10123000424A434F1368013313603B68002B4DD083
:10124000404D2B68002B42D0E36A3F4ADFF82CC1A7
:101250001668DCF800E03D480136166001229A402D
:1012600003EB830342EA0E0200EB83004146CCF815
:101270000020FFF7C3F8FFF78FF92B686BB13A68CE
:10128000E36AD26A9A4208D2314B4FF080525A60D8
:1012900040BFBFF34F8FBFF36F8F00F0BFFD01283A
:1012A0000ED1402383F311882A4B2B494FF0FF3492
:1012B00000220C6028601A60BDE8F843FFF73CB9D3
:1012C000BDE8F8832846BDE8F843FFF785B83A68DB
:1012D000E36AD26A9A4298BF3C60B6E73C60136802
:1012E000012B02D0E36A174DAFE71848DFF8909062
:1012F0001A4E144DFFF772F81948FFF76FF81948A6
:10130000FFF76CF84846FFF769F83046FFF766F8D4
:101310001548FFF763F81548FFF760F81448FFF722
:101320005DF8144B144AC2F800901E60E36A8CE723
:1013300049444C00AD16000020110020E0100020B0
:101340009810002040110020F0100020A410002070
:1013500000ED00E06C110020241100200C11002091
:10136000B8100020CC1000202C11002058110020B3
:1013700044110020A01000209C100020F410002038
:10138000F8100020024A136801331360704700BF51
:10139000EC100020014B1868704700BF6C11002052
:1013A000024A136818441060704700BF6C11002097
:1013B0002DE9F04F404B1B6883B0002B47D13F4BCA
:1013C0001E6801361E60002E4FD0DFF808B1DBF832
:1013D0000030B34260D83A4F3B681D68002D66D09C
:1013E000DFF8F480DFF8F4A0DFF8F490002523E0C4
:1013F0000191FFF727F8A36A019904F1180013B1CE
:10140000FFF720F80199E06AD8F800200123834013
:1014100000EB800013430AEB8000C8F80030FEF7B1
:10142000EDFFD9F800203B68E16AD26A1B6891425F
:1014300028BF0125002B3AD03B68DB68DC68636875
:10144000211D9E420846D3D2CBF8003004E01D4A4D
:1014500013680133136000251B4B1B68002B0CBF66
:101460002846012003B0BDE8F08F154B174A1868D5
:10147000174914681C6010600A6801320A601A6813
:1014800012685AB9DFF84CB04FF0FF33CBF8003098
:10149000DBF80030B3429ED90025DDE71B68DFF89A
:1014A00034B0DB68DB685B68CBF800308FE74FF067
:1014B000FF33CBF80030CFE7EC1000206C11002098
:1014C0009C100020E810002070110020A0100020C7
:1014D0002811002024110020F4100020A410002066
:1014E000981000202DE9F04F83B0FFF74BF83D4BEB
:1014F0001A68013A1A601B68002B59D13A4B1B68D5
:10150000002B55D0DFF8FCA0DAF80030002B65D0B6
:10151000364DDFF8F480364FDFF8F0900126DAF828
:101520000C30DC6804F1040B04F11800FEF78AFFAC
:101530005846FEF787FFE06A2A6806FA00F300EBD8
:1015400080001343594608EB80002B60FEF756FFDE
:101550003B68E26ADB6A9A4232D3C9F80060DAF883
:101560000030002BDBD1234B1A681268002A30D0E0
:101570001A68214BD268D26852681A601F4E3468CC
:1015800044B10125FFF714FF08B1C9F80050013C30
:10159000F8D13460D9F8003053B1194B4FF0805274
:1015A0005A6040BFBFF34F8FBFF36F8F012000E041
:1015B00000200190FEF7F0FF019803B0BDE8F08F26
:1015C000DAF80030002BAAD10A4B1A681268002AF8
:1015D000CED1094B4FF0FF321A60CFE7DFF82C90E5
:1015E000CCE700BFEC100020E0100020F410002039
:1015F000981000209C10002024110020E8100020EA
:1016000000ED00E02C110020A4100020701100203B
:1016100070B548B91D4B4FF080525A6040BFBFF3C0
:101620004F8FBFF36F8F70BD194A1A4913681A4D57
:10163000013313600E68044628680430FEF702FF89
:1016400040B92B681549D86A0B680122824023EA09
:1016500002030B602B68A4195C600FD2104B186852
:1016600029680431FEF7D6FE0E4B1A68944238BF43
:101670001C60FFF737FF0028CCD070BD0A4B1868FC
:1016800029680431FEF7C6FEF3E700BF00ED00E075
:10169000EC1000206C11002098100020F4100020A5
:1016A0009C10002024110020A01000202DE9F84FEC
:1016B000334CDFF8E890334D334E344FDFF8E080A1
:1016C000DFF8E0B018E0FEF75DFFD9F80C30D3F892
:1016D0000CA00AF10400FEF7B5FE2B68013B2B605D
:1016E0002368013B2360FEF757FFDAF83000FEF76E
:1016F00073FE5046FEF770FE2368002BE3D133687B
:10170000012B08D94FF08053CBF8043040BFBFF312
:101710004F8FBFF36F8F3B68012BD8F80030DB6A27
:1017200003D9002BE8D13368E6E7002BE4D1336816
:10173000012BE1D8164B174A1B6812689B1A012B24
:10174000DAD9154A1368013313603B68012BD8F8C6
:101750000030DB6A04D903B93368FFF7C3FECBE777
:10176000002BFAD13368012BF7D8094B1868094BC5
:101770001B68C01A0128F0D9FEF77CFFEDE700BF17
:10178000E4100020E0100020A4100020F41000203D
:10179000241100206C110020EC10002058110020B2
:1017A0009810002000ED00E0154B1B681BB1154B95
:1017B00001221A6070471349134A0B601368C3B1C2
:1017C000B3FA83F3C3F11F0303EB830189000831EC
:1017D0009A000E48134400EB830301445A68526890
:1017E0005A608A4204BF52685A60094BD2681A6034
:1017F00070474FF0FF336FF00B016FF00302E8E723
:10180000EC10002070110020F4100020A410002023
:101810009810002070B51C4D2B680C4603F1180180
:10182000FEF7F8FD194B1E6828680430FEF70AFE23
:1018300040B92B681649D86A0B680122824023EA16
:1018400002030B60631C17D02B68A4195C6007D3DC
:10185000104B18682968BDE870400431FEF7DABD06
:101860000D4B186829680431FEF7D4FD0B4B1A683C
:10187000944238BF1C6070BD29680948BDE87040BB
:101880000431FEF7BBBD00BF981000206C11002092
:10189000F4100020A01000209C1000202411002033
:1018A00044110020F8B5214D2B680C4603F11801B6
:1018B0001646FEF7A3FD1E4B1F6828680430EEB9DC
:1018C000FEF7C0FD50B92B681A49D86A0B6801228F
:1018D000824023EA02030B60631C1DD02B683C1975
:1018E0005C6011D2144B186829680431FEF792FD30
:1018F000124B1A68944200D21C60F8BDFEF7A2FD9C
:1019000060B94FF0FF34DEE70D4B18682968BDE879
:10191000F8400431FEF77EBD002EDFD0296809486B
:10192000BDE8F8400431FEF769BD00BF9810002003
:101930006C110020F41000209C10002024110020C5
:10194000A01000204411002070B5C368DC6804F1C9
:10195000180582B02846FEF775FD1C4B1B6843BB7B
:10196000211D1B4D01910846FEF76CFDE26A2E68B1
:10197000184801990123934002EB8202334300EBA4
:1019800082002B60FEF73AFD134BE26A1B68DB6AAC
:101990009A4282BF114B01201860114B1A681268DD
:1019A00098BF002052B90F4B4FF0FF321A6002B0BF
:1019B00070BD0D482946FEF721FDE5E71A68094B81
:1019C000D268D26852681A6002B070BDEC10002074
:1019D000F4100020A41000209810002070110020A6
:1019E0009C100020241100202C110020034A044BDD
:1019F00012681B68C0E90023704700BF281100204F
:101A00006C110020F0B50D4683B00446FEF7BAFD18
:101A10002B68144A591C10681DD0DFF84CC0D4E95B
:101A20000061DCF80070BE4208D0814206D8012077
:101A30000190FEF7B1FD019803B0F0BD471ABB421B
:101A40000BD91B1A0B44DCF8001012682B60002025
:101A5000C4E90012ECE70020EAE700232B60012034
:101A6000E6E700BF6C11002028110020014B012285
:101A70001A60704770110020094B186818B9094B9B
:101A80001B6813B1704700207047074A074B106866
:101A90001B68013B984214BF01200220704700BF21
:101AA0002C1100207011002044110020E0100020B3
:101AB000054B1B6833B1054B1B68002B0CBF022084
:101AC000002070470120704740110020EC100020DA
:101AD00068B1F0B5C36BC16A826B013B914283B0C0
:101AE0000446C36300D023B1002003B0F0BD002042
:101AF0007047011D08460191FEF7A4FC0199B8B199
:101B00001448154EA36BD6F800C0E362012505FA10
:101B100003F2C3F1030703EB830342EA0C0200EB79
:101B20008300A7613260FEF769FC284603B0F0BD70
:101B3000E26A0848084E02EB82039B00C358002B60
:101B4000E0D13368012505FA02F223EA020232608D
:101B5000D8E700BFA4100020F41000202DE9F043C6
:101B60001D4EDFF87C9085B04FF000080CE0DB687C
:101B7000DC681F68251D2846FEF764FC636A204662
:101B80009847E369012B0AD033681A68002AEED11E
:101B9000124A11683160136005B0BDE8F083A36993
:101BA0003B449F42294610D3D9F80030002BEBD09C
:101BB000CDE900870294FFF77BFF0023D9F80000EE
:101BC0001A466946FEF702FEDEE73068636024616C
:101BD000FEF720FCD8E700BF741100207811002028
:101BE000A81100202DE9F04F874E884CDFF82482A1
:101BF000874DDFF824A28BB03368D3F800B0BBF177
:101C0000000F00F0A580DB68D3F800B0FFF7BAFB47
:101C1000FFF7C0FB226890428146C0F0AA8083454E
:101C2000206040F2BB8000222868ABEB0901FFF77F
:101C300069F9FFF757FC40B94FF08053CAF80430F8
:101C400040BFBFF34F8FBFF36F8F2868002202A9F8
:101C5000FEF7EAFF0028CFD0029B002B6FDBDDF8F8
:101C60001090D9F814301BB109F10400FEF7EAFB1B
:101C7000FFF790FB236898420746C0F08180029BE3
:101C80002760092BE1D801A252F823F0B51C00000F
:101C9000B51C0000B51C00004B1C00000F1D00000F
:101CA000371D0000B51C0000B51C00004B1C0000D7
:101CB0000F1D00000398D9F81830C9F81090C21809
:101CC0002CBF01210021BA42C9F804205BD8381A80
:101CD000834228D8D9F8243048469847D9F81C3090
:101CE0002868012BB2D10028B0D0D9F81820039B66
:101CF00000211344CDE907390691FFF7D9FE0023EF
:101D000028681A4606A9FEF761FD28689EE7039B2E
:101D1000C9F81090DA19BA42C9F81830C9F8042085
:101D200035D8002B91D0D8F8000009F10401FEF756
:101D300071FB28688AE74846FEF74EFB85E7039B60
:101D4000DDE904019847029B002BFFF67EAF86E792
:101D5000FFF718FBFFF71EFB22689042814608D36D
:101D6000D8F80020C4F800901268B2FA82F2520942
:101D70005AE7FFF7F3FEC4F80090FFF7B3FB64E700
:101D8000FFF7ECFE7BE7B84201D90029A2D030680A
:101D900009F10401FEF73EFB286857E7FFF7A2FBB5
:101DA0003268D268D768391D08460191FEF74AFBB0
:101DB000F8690199012803D07B6A3846984744E7BF
:101DC000BA693F610BEB02004845786003D930687F
:101DD000FEF720FBF0E7A9EB0B039A420FD82B6824
:101DE000002BE9D00023CDE9063B0897FFF760FE02
:101DF000002328681A4606A9FEF7E8FCDCE7D8F8B5
:101E00000000FEF707FBD7E774110020A4110020A3
:101E1000A81100207811002000ED00E0F0B5174C6B
:101E200083B0FEF7AFFB25687DB1FEF7B5FB2068F8
:101E300048B1134B01930223009312491248002327
:101E40005022FFF7C5F803B0F0BD104F104E3846D2
:101E5000FEF7C4FA3046FEF7C1FA0E4A0E4B176081
:101E600010212A4620201E60FEF776FC2060002804
:101E7000DBD00A49FFF734F8D7E700BFA8110020EC
:101E8000AC110020B02A0000E51B00007C110020EE
:101E9000901100207411002078110020A82A000061
:101EA0002DE9F04F074683B02820884616461D4688
:101EB000FEF766FA044688B1DFF87090FEF762FB21
:101EC000D9F8002072B1FEF767FB0C9B2760C4E9CC
:101ED000068625626362201DFEF78CFA204603B059
:101EE000BDE8F08FDFF848B0DFF848A0019258460F
:101EF000FEF774FA5046FEF771FA0949094BC1F82A
:101F000000B0019AC3F800A010212020FEF724FCA5
:101F1000C9F800000028D6D00349FEF7E1FFD2E758
:101F20007411002078110020A82A0000A8110020B8
:101F30007C1100209011002050B5144E346885B0FB
:101F4000C4B10529CDE9001202900BDCFFF7B0FD0A
:101F5000022812D0002330681A466946FEF736FC84
:101F600005B050BD1A46204600236946FEF7DEFD47
:101F700005B050BD204605B050BD3068089A00231A
:101F80006946FEF723FC05B050BD00BFA811002034
:101F900000B585B00346002101AA44F20100CDE955
:101FA0000111039300F004F805B05DF804FB00BFD5
:101FB00072B6094B1B68DB0700D500BEBFF34F8F1D
:101FC0000649074BCA6802F4E0621343CB60BFF3D3
:101FD0004F8F00BFFDE700BFF0ED00E000ED00E037
:101FE0000400FA0572B6024A1368013313607047A1
:101FF000B0110020034A1368013B136003B962B6B5
:10200000704700BFB011002010B568B90E4CA3682E
:10201000012262703BB1D3E900230020A2609847FF
:10202000A368002BF7D110BD0128FCD1064C236911
:10203000A070002BF7D0D3E900230120226198473C
:102040002369002BF7D110BDB411002010B50D4C41
:10205000237882B043B185200B4BD3F800340BB109
:102060000123A37002B010BD08486360A360236120
:10207000E36000F03BF8019000F044F80123019880
:102080002370E9E7B411002000000140092000009E
:1020900038B5154DAB78044673B110B143680120D3
:1020A00098470020FFF79EFFEB680133EB600020AC
:1020B000BDE83840FFF79EBF03F0FF00FFF792FF37
:1020C00064B12A6942B1944208D0134601E09C42AF
:1020D00004D01B68002BFAD122602C61EB68002B26
:1020E000E2D100F021F8DFE7B4110020044A1379AF
:1020F00023B90121106091801846704785207047F0
:10210000C8110020074B1A68D20704D4C02283F8F4
:10211000002301221A604FF080430122C3F81825E2
:10212000704700BF00E100E010B4094B094A0021EC
:10213000196083B01B680193019C4FF0804102201D
:102140000123C1F80403136003B05DF8044B70472A
:10215000040100400800004010B5174B1A6882B017
:1021600062B10021154A19601B68507900934FF045
:1021700080410123009CC1F8083398B1104B1A68C4
:10218000BAB100221A601B6801934FF0804202210D
:102190000A4B0198C2F808131B68012002B0BDE881
:1021A00010401847116853718847054B1A68002A78
:1021B000E7D102B010BD00BF00010040C8110020EF
:1021C000040100402DE9F047002384B0CDE902333B
:1021D000D54A1168012900F040821E46D34B1A6887
:1021E000012A00F02C82D24B1A68012A00F01982D1
:1021F000D04B1A68012A00F00682CF4B1A68012AD8
:1022000000F0F381CD4B1A68012A00F0E081CC4B3D
:102210001A68012A00F0CD81CA4B1A68012A00F021
:10222000A181C94B1A68012A20D0E6B1C74F012508
:102230000024A30003F18043354203F5C0434FEA75
:1022400045050BD0D3F8100557F82420D3F8101506
:10225000C0F30520C1F3014102B190470134082CBD
:10226000E7D1002E17DB04B0BDE8F08700221A602A
:102270001B6801934FF0A042019BD2F82015B44B8C
:102280000291C2F82015D3F820250392C3F8202527
:10229000002E40F08B81AD4CAD4E01254FF0A04794
:1022A00094F96000431C46D0C0F3C20204AB1A4448
:1022B00000F0070312F8082C05FA03F31A42C1B222
:1022C00000F03F0037D01F2800F2258102464FF072
:1022D000A04909EB820304EB000ED3F800C7D3F842
:1022E000008728F44038C3F80087CCF3014C9EF9EE
:1022F0003080D3F800E754F82880BCF1020F0CBFFF
:102300004FF4403A4FF4003A05FA02F24EEA0A0E50
:10231000C3F800E7C9F82025B8F1000F0BD08909F0
:10232000032900F0B381BCF1020F00F0BE81BCF1C3
:10233000030F00F0A88194F96100411C46D0C0F35E
:10234000C20204AB1A4400F0070312F8082C05FA85
:1023500003F31A42C1B200F03F0037D01F2800F249
:10236000DE8002464FF0A04909EB820304EB000E29
:10237000D3F800C7D3F8008728F44038C3F80087A3
:10238000CCF3014C9EF93080D3F800E754F8288054
:10239000BCF1020F0CBF4FF4403A4FF4003A05FA7B
:1023A00002F24EEA0A0EC3F800E7C9F82025B8F198
:1023B000000F0BD08909032900F06D81BCF1020FD9
:1023C00000F06B81BCF1030F00F0628194F96200B0
:1023D000421C46D0C0F3C20204AB1A4400F007030B
:1023E00012F8082C05FA03F31A42C1B200F03F00BC
:1023F00037D01F2800F2AE8002464FF0A04909EB0B
:10240000820304EB000ED3F800C7D3F800879EF9CF
:1024100030E028F44038C3F80087CCF3014CD3F8FF
:1024200000A754F82E80BCF1020F0CBF4FF4403EC1
:102430004FF4003E05FA02F24EEA0A0EC3F800E736
:10244000C9F82025B8F1000F0BD08909032900F045
:102450001381BCF1020F00F02481BCF1030F00F0E6
:10246000088194F96300431C45D0C0F3C20204AB59
:102470001A4400F0070312F8082C05FA03F31A4275
:10248000C1B200F03F0036D01F2867D802464FF097
:10249000A04909EB820304EB000ED3F800C7D3F880
:1024A000008728F44038C3F80087CCF3014C9EF92C
:1024B0003080D3F800E754F82880BCF1020F0CBF3D
:1024C0004FF4403A4FF4003A05FA02F24EEA0A0E8F
:1024D000C3F800E7C9F82025B8F1000F0BD089092F
:1024E000032900F0CE80BCF1020F00F0E280BCF1C5
:1024F000030F00F0C380D7F820250292C7F82025EB
:10250000D6F820350393C6F8203513437FF4C8AEC0
:1025100004B0BDE8F08701F01F02B146D9E601F032
:102520001F02B14620E700BF006100400461004087
:10253000086100400C6100401061004014610040DF
:10254000186100401C6100407C610040D0110020F7
:102550000003005001F01F02B14650E701F01F02D6
:10256000B14696E7554AD2F8042312067FF559AED4
:1025700000221A6019680091196E0098012903F170
:10258000600346F080067FF450AE1A601B6801932A
:102590004FF0A042019BD2F82015494B0291C2F89E
:1025A0002015D3F820250392C3F8202546F00046D5
:1025B0003CE6424AD2F8042351067FF52DAE0022B4
:1025C0001A601B680093009B46F0400624E63B4AD5
:1025D000D2F8042390067FF51AAE00221A601B6819
:1025E0000093009B46F0200611E6344AD2F80423FB
:1025F000D4067FF507AE00221A601B680093009B8B
:1026000046F01006FEE52D4AD2F8042315077FF5A3
:10261000F4AD00221A601B680093009B46F0080688
:10262000EBE5264AD2F8042357077FF5E1AD0022F7
:102630001A601B680093009B46F00406D8E51F4A09
:10264000D2F8042392077FF5CEAD00221A601B68F2
:102650000093009B46F00206C5E51849D1F80463D3
:1026600016F001063FF4BAAD136013680093009BA7
:10267000B4E502297FF4F5AEC047F2E602297FF403
:102680003AAFC04737E702297FF455AEC04752E65C
:1026900002297FF49BAEC04798E601297FF496AEED
:1026A000F9E701297FF4DDAEE6E701297FF443AEC7
:1026B000ECE701297FF41FAFE3E700BF00600040B3
:1026C000000300500120FDF713BE00BF08B5022033
:1026D000FDF70EFE4FF49670FEF79AFFF7E700BF86
:1026E00008B50020FDF704FEC820FEF791FFF8E7CB
:1026F00030B583B0FFF7AAFC002835D10120FDF7E3
:1027000011FE1B4B1B491C480125CDE900534FF41A
:1027100082720023FEF75CFC184B019302231849D8
:1027200000934FF4827200231648FEF751FC164BBB
:1027300000932A464FF47A7100231448FFF7B0FB48
:10274000134B04461860FEF725FE00230246009353
:1027500020462946FFF7F0FB0E4A136943F00403B5
:102760001361FEF72DFDFEE7FFF712FCC6E700BF81
:1027700054120020B82A0000E12600005012002068
:10278000C02A0000CD260000C5260000C82A00008F
:102790004C12002000ED00E010B4814B1B68082BA8
:1027A00021D0804AD2F8883043F47003C2F88830D0
:1027B000BFF34F8FBFF36F8F794B1B68082B00F06F
:1027C000AA804FF01023D3F80022002AC0F2B6806E
:1027D000D3F80432002BC0F2B180734B734A1A60F5
:1027E0005DF8044B70474FF080414FF0805200205D
:1027F000C1F80C016E4BC1F81001C1F83805D2F8D0
:102800000414C3F82015D2F80814C3F82415D2F81C
:102810000C14C3F82815D2F81014C3F82C15D2F8EC
:102820001414C3F83015D2F81814C3F83415D2F8BC
:102830001C14C3F84015D2F82014C3F84415D2F87C
:102840002414C3F84815D2F82814C3F84C15D2F84C
:102850002C14C3F85015D2F83014C3F85415D2F81C
:102860003414C3F86015D2F83814C3F86415D2F8DC
:102870003C04C3F868054F49D2F84004C3F86C051E
:102880000968D2F84424C3F87025052937D84A4B83
:102890005B5C13B1494B4A4A1A604A4B5B5C63B1BB
:1028A0003F4B49491B68434AFB20C1F81805082BD8
:1028B00011687FF476AF052921D8444B5B5C93B156
:1028C0004348444B364C02681B682468394922F05F
:1028D0000F0203F00F031343082C096803607FF411
:1028E00060AF05290BD83C4B5B5C43B12C4B3B4A9A
:1028F0001B684FF40071082B11607FF452AF4FF04A
:102900008043D3F80024D2077FF54BAF6FF001026C
:10291000C3F8002445E7274B1B68052B08D94FF067
:1029200010224FF08043D2F80822C3F8582548E718
:102930002B4AD35C002B3FF444AFF0E7294A012334
:10294000C2F80435D2F80034002BFBD04FF010232E
:102950001221244AC3F80012D2F80034002BFBD015
:102960004FF0102312211F4AC3F80412D2F800348A
:10297000002BFBD000231B49C2F80435D1F80034EA
:10298000002BFBD0BFF34F8F0649174BCA6802F4E8
:10299000E0621343CB60BFF34F8F00BFFDE700BF82
:1029A0003001001000ED00E0000000200090D00396
:1029B00000C0004034010010D82A00008C560040AE
:1029C00048810300D82A000000F00040D82A000007
:1029D000E40E004058020010D82A00004096024041
:1029E000D02A000000E001400400FA0508B5074BBA
:1029F000044613B10021AFF30080054B1868836AC9
:102A000003B19847204600F03FF800BF00000000E7
:102A1000E02A000070B50D4D0D4C641BA41000267B
:102A2000A64209D10B4D0C4C00F030F8641BA410E9
:102A30000026A64205D170BD55F8043B98470136E3
:102A4000EEE755F8043B98470136F2E764000020B2
:102A50006400002064000020680000200A449142C5
:102A600000F1FF3300D1704710B511F8014B03F8A6
:102A7000014F9142F9D110BD02440346934200D167
:102A8000704703F8011BF9E7FEE700BFF8B500BF88
:102A9000F8BC08BC9E467047F8B500BFF8BC08BC3F
:102AA0009E4670470D0E0F10546D725100000000CD
:102AB000546D7220537663004C4544300000000092
:102AC0004C454432000000004C45443100000000F9
:102AD00000000000010100000100000000000000F3
:082AE0000400002000000000CA
:082AE80058D7FF7F0100000038
:102AF0000090D00300000000000000000000000073
:102B000000000000000000000000000000000000C5
:102B100000000000000000000000000000000000B5
:102B200000000000000000000000000000000000A5
:102B30000000000000000000000000000000000095
:102B40000000000000000000000000000000000085
:0C2B50000000000025020000010200004F
:04000003000002B542
:00000001FF
