:1000000000000420B5020000DD020000DF02000055
:10001000E1020000E3020000E50200000000000031
:10002000000000000000000000000000CD040000FF
:10003000E902000000000000ED040000ED020000F5
:1000400015270000EF02000049250000EF02000024
:10005000EF020000EF020000812A0000EF02000022
:1000600071400000C940000021410000EF02000083
:10007000EF020000EF020000EF020000EF020000BC
:10008000EF020000F5050000EF020000EF020000A3
:10009000EF020000EF020000EF020000EF0200009C
:1000A000EF020000EF020000EF020000EF0200008C
:1000B000EF020000EF02000000000000000000005E
:1000C000EF020000EF020000EF020000EF0200006C
:1000D000EF020000EF020000EF020000EF0200005C
:1000E000EF020000EF020000EF020000000000003D
:1000F00000000000EF02000000000000EF0200001E
:1001000000000000000000000000000000000000EF
:1001100000000000000000000000000000000000DF
:1001200000000000000000000000000000000000CF
:1001300000000000000000000000000000000000BF
:1001400000000000000000000000000000000000AF
:10015000000000000000000000000000000000009F
:10016000000000000000000000000000000000008F
:10017000000000000000000000000000000000007F
:10018000000000000000000000000000000000006F
:10019000000000000000000000000000000000005F
:1001A000000000000000000000000000000000004F
:1001B000000000000000000000000000000000003F
:1001C000000000000000000000000000000000002F
:1001D000000000000000000000000000000000001F
:1001E000000000000000000000000000000000000F
:1001F00000000000000000000000000000000000FF
:1002000010B5054C237833B9044B13B10448AFF350
:1002100000800123237010BD780000200000000042
:10022000E848000008B5034B1BB103490348AFF38E
:10023000008008BD000000007C000020E8480000AD
:10024000154B002B08BF134B9D46A3F5803A0021A8
:100250008B460F461348144A121A04F09BFA0F4BB0
:10026000002B00D098470E4B002B00D09847002061
:10027000002104000D000D48002802D00C48AFF307
:10028000008004F055FA2000290004F063F804F01F
:100290003BFA00BF0000080000000420000000003E
:1002A0000000000078000020E81500200000000099
:1002B000000000000649074A074B9B1A03DD043B78
:1002C000C858D050FBDC04F0F5F8FFF7B9FF000088
:1002D000F44800000000002078000020FEE7FEE760
:1002E000FEE7FEE7FEE7FEE7FEE7FEE7FEE7FEE7E6
:1002F000064B1A5C1F2A86BF054902F01F024FF009
:10030000A04101239340C1F80C357047004800001C
:1003100000030050064B1A5C1F2A86BF054902F0F5
:100320001F024FF0A04101239340C1F808357047E8
:1003300000480000000300500A4B185C1F288ABFC9
:1003400009494FF0A04100F01F00D1F80435012207
:10035000824022EA03001340C1F80805C1F80C35B9
:10036000704700BF0048000000030050C20730B4CF
:100370000ED483070AD54FF0A0430C22C3F82C27D4
:10038000C3F83027C3F86027C3F8642730BC704730
:100390004FF0A0430322C3F834274FF40055C3F8AD
:1003A00038274FF48044C3F83C274FF40041C3F88A
:1003B00040274FF48032C3F80855C3F80845C3F806
:1003C0000815C3F80825D4E738B5430704461CBF11
:1003D00020F00704083400F0F9FF0E4A13689BB1BF
:1003E0000D4A156840F6F7712C448C4207D8A54297
:1003F00005D21D44146001F099F8284638BD002547
:1004000001F094F8284638BD044B23F0070313602D
:10041000E6E700BF9400002098100020A000002014
:10042000704700BF00F108034FF0FF310022C0E920
:100430000333816002604360704700BF00230361A3
:10044000704700BF43684B609A688A60516099604A
:100450000861036801330360704700BF30B40D6862
:100460006B1C10D000F108031C465B681A68AA4296
:10047000FAD94B6099608C60616008610368013350
:1004800030BC0360704704696368F2E7D0E9011289
:1004900003698A60416851605A68824204BF826879
:1004A0005A60002202611A68013A1A60186870479F
:1004B0000548006880F3088862B661B6BFF34F8FC5
:1004C000BFF36F8F00DF00BF00000000064B19680C
:1004D0000868B0E8F04F80F30988BFF36F8F4FF0E2
:1004E000000080F311887047A0100020EFF309800E
:1004F000BFF36F8F144B1A681EF0100F08BF20ED6A
:10050000108A20E9F04F10604DF8043D4FF0400094
:1005100080F31188BFF34F8FBFF36F8F01F068F93D
:100520004FF0000080F3118808BC19680868B0E833
:10053000F04F1EF0100F08BFB0EC108A80F309884E
:10054000BFF36F8F704700BFA0100020402383F3DC
:100550001188FEE730B46FF00203084C40F8081C25
:100560004FF0807540F8202C40F8045C40F80C4CAB
:1005700040F8243C30BC4438704700BF4D050000B3
:100580000F4C08B5E02384F8223000F077F80D4BCB
:100590000D4A00211960D4F8883043F47003C4F880
:1005A0008830536843F040435360236943F010039D
:1005B0002361FFF77DFF402383F31188FEE700BF2F
:1005C00000ED00E09C10002030EF00E0402383F3BA
:1005D0001188024A13680133136070479C10002091
:1005E000034A1368013B13600BB983F3118870470A
:1005F0009C10002070B51D4B00221A6082B01B6851
:100600000193019BEFF31186402383F3118818496E
:10061000184BD1F804451A601B680093009B00F04A
:10062000DDFE201A20F07F4323F0010320F07F45F8
:100630009BB96C1E6DB1002500F0DEFE013C631C11
:1006400045EA0005F8D125B10B4B4FF080525A60B6
:1006500040BF86F3118802B070BD01F04DFA022848
:10066000E7D000F0C9FE0546EDE700BF40110140AC
:10067000001001400011014000ED00E038B50020FD
:1006800001F02AFD0A4B0B4D0B491F20C3F808054A
:1006900001220224E020C3F804232A601A60C3F870
:1006A000444381F811034FF400330B6038BD00BFA1
:1006B000001001400810014000E100E0F0B50446E0
:1006C00085B072B6314DD5F8046501F0F9F900280E
:1006D00042D02F4F2F4BA74228BF2746F21922F0B6
:1006E0007F4201210020C5F80813C5F84025186095
:1006F0001A6801924FF480320198C5F80423BFF3C1
:100700004F8F64B3244B20BFD3F80011D3F80421DA
:100710000A43F8D01D4A1F4C20494FF48030C2F8DC
:1007200008030020206024680394039C0860096883
:10073000029101210298C2F80413D2F80425921BF9
:1007400022F07F40B8424FF4003228BF3846C3F849
:10075000802108B100F048FE62B605B0F0BDC5F8D2
:1007600008231C601A680D4B0392039A1C601B68D7
:100770000293094B029AC5F804134FF40032D5F8DE
:100780000415C3F8802162B605B0F0BD0010014029
:10079000FDFFFF004011014000E100E000110140B9
:1007A00070B506460D4651B100FB01F04830FFF729
:1007B0000BFE044658B300F14803036005E04820EF
:1007C000FFF702FE044610B32460C4E90F65FFF78B
:1007D000FDFED4E90F132268A26001FB03F1CB1ADE
:1007E000134400200A44FF21A063E36084F844100E
:1007F000626084F8451004F11000FFF713FE04F165
:100800002400FFF70FFEFFF7EBFE204670BD00242B
:10081000204670BD2DE9F047044684B01F46019282
:10082000884600F12406FFF7D1FEA26BE36BDFF8E8
:1008300040939A424FF0000A7CD3022F00F0E880E8
:10084000019D002D00F0128102ADBAF1000F00F001
:10085000DB80FFF7C5FE00F0B9FDFFF7B7FE94F8A7
:100860004430FF2B04BF002384F8443094F8453013
:10087000FF2B04BF002384F84530FFF7B1FE284664
:1008800001A901F0E3F8002840F0F680FFF79EFE92
:10089000A26BE36B9A4261D0FFF7A2FEFFF796FED0
:1008A00094F845506DB2002D05DC12E06B1E13F07C
:1008B000FF0F5DB20DD0636A304653B101F068F8A6
:1008C0000028F3D001F0F6F86B1E13F0FF0F5DB2B5
:1008D000F1D1FF2384F84530FFF782FEFFF776FE63
:1008E00094F844506DB2002D15DD04F1100A04E0B7
:1008F0006B1E13F0FF0F5DB20DD02369504653B14C
:1009000001F046F80028F3D001F0D4F86B1E13F084
:10091000FF0F5DB2F1D1FF2384F84430FFF760FE92
:1009200000F004FEFFF752FEA26BE36B9A424FF019
:10093000010A82D2226CA56B002A40F0E78026686B
:10094000002E00F0F9800135A563636A002B7CD18D
:10095000FFF746FE012004B0BDE8F08704F1100A5D
:10096000FFF73EFE0199504600F078FFFFF72EFE9C
:1009700094F845506DB2002D05DC12E06B1E13F0AB
:10098000FF0F5DB20DD0636A304653B101F000F83D
:100990000028F3D001F08EF86B1E13F0FF0F5DB24C
:1009A000F1D1FF2384F84530FFF71AFEFFF70EFE62
:1009B00094F844506DB2002D05DC12E06B1E13F06C
:1009C000FF0F5DB20DD02369504653B100F0E0FF38
:1009D0000028F3D001F06EF86B1E13F0FF0F5DB22C
:1009E000F1D1FF2384F84430FFF7FAFD00F09EFDBB
:1009F000002897D14FF08053C9F8043040BFBFF3AF
:100A00004F8FBFF36F8F8DE7284601F013F820E773
:100A1000226CA56B002A92D04146E06803F0ACFE40
:100A2000226CE36821689B1A8B42E360C2F10002EA
:100A300004D263681A44E260022F84D1002D83D16E
:100A40000123A363636A002B82D004F1240000F029
:100A50009FFF00283FF47CAF454B4FF080525A6017
:100A600040BFBFF34F8FBFF36F8F71E7FFF7B8FD44
:100A7000284604B0BDE8F087FFF7A8FD94F845507C
:100A80006DB2002D15DD04F1240604E06B1E13F099
:100A9000FF0F5DB20DD0636A304653B100F078FFAE
:100AA0000028F3D001F006F86B1E13F0FF0F5DB2C3
:100AB000F1D1FF2384F84530FFF792FDFFF786FD63
:100AC00094F844506DB2002D15DD04F1100604E0D9
:100AD0006B1E13F0FF0F5DB20DD02369304653B18A
:100AE00000F056FF0028F3D000F0E4FF6B1E13F077
:100AF000FF0F5DB2F1D1FF2384F84430FFF770FDA2
:100B000000F014FD002004B0BDE8F087414607BBAB
:100B1000A06803F031FEA368216C62680B44934225
:100B2000A360FFF410AF0135A563636A2268A26079
:100B3000002B3FF40DAF88E76068013500F0ECFF53
:100B4000A563636A6660002B7FF47FAF002883D1C2
:100B5000FEE6E06803F010FE226CE36821689B1A51
:100B60008B42E360C2F10002BFF466AF61E700BFF1
:100B700000ED00E02DE9F043044683B016469946A7
:100B8000EFF31188402282F31188806BE26B904270
:100B90001ED3022B05D0002088F3118803B0BDE8D6
:100BA000F08394F84550226CA76B6DB232BB23687A
:100BB000002B47D001376B1CA76335D001356DB2D0
:100BC00084F84550012088F3118803B0BDE8F08314
:100BD00094F84550226CA76B6DB2002AE7D0002B29
:100BE00038D1A06803F0C8FDA368216C62680B448B
:100BF0009342A36024BF2368A360DBE7E06803F0AF
:100C0000BBFD226CE0682168801A8842E060C2F176
:100C1000000205D261680A44E260B9F1020FC9D14D
:100C2000012F38BF0127C6E7636A002BCAD004F141
:100C3000240000F0ADFE0028C4D0002EC2D0012058
:100C40003060A9E76068019300F066FF019B636074
:100C50000137B0E7E06803F08FFD226CE06821689F
:100C6000801A8842E060C2F10002D6D2D2E700BF0B
:100C70002DE9F043044685B00F460192FFF7A6FC2C
:100C8000A56B002D40F02781019B002B00F0D28046
:100C900002A800F0CFFEDFF88C8204F12406FFF7F3
:100CA0009FFC00F093FBFFF791FC94F84430FF2B7E
:100CB00004BF002384F8443094F84530FF2B04BF70
:100CC000002384F84530FFF78BFC01A902A800F04F
:100CD000BDFE00285BD1FFF779FCA36B002B40F031
:100CE000AF80FFF77DFC0199304600F0B7FDFFF7BC
:100CF0006DFC94F845506DB2002D05DC12E06B1EC2
:100D000013F0FF0F5DB20DD0636A304653B100F0AF
:100D10003FFE0028F3D000F0CDFE6B1E13F0FF0F56
:100D20005DB2F1D1FF2384F84530FFF759FCFFF79E
:100D30004DFC94F844506DB2002D15DD04F11009FE
:100D400004E06B1E13F0FF0F5DB20DD0236948461F
:100D500053B100F01DFE0028F3D000F0ABFE6B1E77
:100D600013F0FF0F5DB2F1D1FF2384F84430FFF799
:100D700037FC00F0DBFB002853D14FF08053C8F85C
:100D8000043040BFBFF34F8FBFF36F8F49E0FFF7D1
:100D90001DFC94F845506DB2002D05DC12E06B1E71
:100DA00013F0FF0F5DB20DD0636A304653B100F00F
:100DB000EFFD0028F3D000F07DFE6B1E13F0FF0F57
:100DC0005DB2F1D1FF2384F84530FFF709FCFFF74E
:100DD000FDFB94F844506DB2002D15DD04F11009AF
:100DE00004E06B1E13F0FF0F5DB20DD0236948467F
:100DF00053B100F0CDFD0028F3D000F05BFE6B1E78
:100E000013F0FF0F5DB2F1D1FF2384F84430FFF7F8
:100E1000E7FB00F08BFBFFF7D9FBA36B53B1FFF7A8
:100E2000DFFBFFF7D3FBA56B002D54D1019B002BFB
:100E30007FF435AFFFF7D4FB002005B0BDE8F083A9
:100E4000FFF7CEFBFFF7C2FB94F845506DB2002DC3
:100E500005DC12E06B1E13F0FF0F5DB20DD0636A6C
:100E6000304653B100F094FD0028F3D000F022FE8C
:100E70006B1E13F0FF0F5DB2F1D1FF2384F84530F4
:100E8000FFF7AEFBFFF7A2FB94F844506DB2002DC4
:100E900015DD04F1100904E06B1E13F0FF0F5DB2C5
:100EA0000DD02369484653B100F072FD0028F3D0FD
:100EB00000F000FE6B1E13F0FF0F5DB2F1D1FF23B7
:100EC00084F84430FFF78CFB00F030FBFFF77EFB2B
:100ED000A56B002DAAD0226C52B1E1686368114461
:100EE0009942E16024BF2168E160384603F044FC88
:100EF000013DA56323692BB9FFF772FB012005B003
:100F0000BDE8F08304F1100000F042FD0028F3D0AA
:100F1000044B4FF080525A6040BFBFF34F8FBFF376
:100F20006F8FE9E700ED00E0074B1A681AB19A6885
:100F300002B17047012210B403EBC20443F832102F
:100F400060605DF8044B70470C15002070B50446D6
:100F50000E461546FFF73AFB94F84430FF2B04BFCA
:100F6000002384F8443094F84530FF2B04BF00235D
:100F700084F84530FFF734FBA36B002B45D0FFF717
:100F800025FB94F845506DB2002D15DD04F12406C3
:100F900004E06B1E13F0FF0F5DB20DD0636A3046A4
:100FA00053B100F0F5FC0028F3D000F083FD6B1E78
:100FB00013F0FF0F5DB2F1D1FF2384F84530FFF746
:100FC0000FFBFFF703FB94F844506DB2002D15DDC5
:100FD00004F1100604E06B1E13F0FF0F5DB20DD09C
:100FE0002369304653B100F0D3FC0028F3D000F061
:100FF00061FD6B1E13F0FF0F5DB2F1D1FF2384F88A
:101000004430BDE87040FFF7EBBA2A46314604F1A0
:10101000240000F06BFCB2E72DE9F84F9600804603
:1010200030460D469946FFF7CFF9002800F08A8038
:1010300007464820FFF7C8F90446002800F08F80D3
:10104000076332463846A52103F0A4FB2B7884F8C9
:1010500034302B78D4F830B063B16B7884F8353005
:101060006B783BB1AB7884F83630AB7813B1EB7862
:1010700084F837300A9D022D28BF02254FF0000A60
:10108000271DE562A563384684F837A0C4F83CA064
:10109000043EFFF7D3F9C5F1030504F118005E44DF
:1010A000FFF7CCF9C4F840A0A56126F0070084F84A
:1010B00044A0246164624A464146FFF74BFA0B9B09
:1010C000206003B11C60FFF781FA3F4ADFF82C81F2
:1010D000136801331360D8F80030002B48D0DFF8D4
:1010E0002091D9F800308BB3E36A384ADFF814C195
:1010F0001668DCF800E0364801252E44166005FA33
:1011000003F203EB830342EA0E0200EB830039464D
:10111000CCF80020FFF796F9FFF762FAD9F8003013
:101120001BB3D8F80020E36AD26A9A421DD2294B39
:101130004FF080525A6040BFBFF34F8FBFF36F8FA5
:10114000284601E04FF0FF30BDE8F88FD8F80020C6
:10115000E36AD26A9A4298BFC8F80040C5E73846A9
:10116000FFF75EF94FF0FF30EEE72846BDE8F88F55
:10117000C8F800401368012B03D0E36ADFF88090C1
:10118000B3E71348144E154DDFF87490FFF74AF992
:101190001348FFF747F91348FFF744F93046FFF7C4
:1011A00041F92846FFF73EF90F48FFF73BF90F4892
:1011B000FFF738F90E48FFF735F90E4B0E4A166067
:1011C0001D60E36A91E700BFE8100020F8100020DE
:1011D000AC10002000ED00E00011002014110020F0
:1011E000C0100020D4100020341100206011002015
:1011F0004C110020A8100020A4100020A0100020F6
:1012000048110020FC1000202DE9F843F020FFF7E2
:10121000DBF8002878D005464820FFF7D5F80446CB
:10122000002873D0F022A5210563284603F0B2FA06
:101230000025514B636304F10408266BE5624046C8
:10124000C4E90E55FFF7FAF804F11800FFF7F6F8B5
:10125000032306F1EC002A4648492564A36120F0E7
:101260000700246184F844506462FFF773F9444B2B
:1012700020601C60FFF7AAF9424A434F136801330C
:1012800013603B68002B4DD0404D2B68002B42D0A3
:10129000E36A3F4ADFF82CC11668DCF800E03D48FD
:1012A0000136166001229A4003EB830342EA0E02E4
:1012B00000EB83004146CCF80020FFF7C3F8FFF7AE
:1012C0008FF92B686BB13A68E36AD26A9A4208D206
:1012D000314B4FF080525A6040BFBFF34F8FBFF386
:1012E0006F8F00F0BFFD01280ED1402383F31188DA
:1012F0002A4B2B494FF0FF3400220C6028601A6003
:10130000BDE8F843FFF73CB9BDE8F8832846BDE8DF
:10131000F843FFF785B83A68E36AD26A9A4298BF01
:101320003C60B6E73C601368012B02D0E36A174DBE
:10133000AFE71848DFF890901A4E144DFFF772F897
:101340001948FFF76FF81948FFF76CF84846FFF7A0
:1013500069F83046FFF766F81548FFF763F8154857
:10136000FFF760F81448FFF75DF8144B144AC2F811
:1013700000901E60E36A8CE749444C00F5160000BB
:1013800028110020E8100020A010002048110020A3
:10139000F8100020AC10002000ED00E074110020D7
:1013A0002C11002014110020C0100020D4100020A7
:1013B00034110020601100204C110020A8100020E2
:1013C000A4100020FC10002000110020024A136825
:1013D00001331360704700BFF4100020014B186800
:1013E000704700BF74110020024A1368184410604F
:1013F000704700BF741100202DE9F04F404B1B686F
:1014000083B0002B47D13F4B1E6801361E60002E73
:101410004FD0DFF808B1DBF80030B34260D83A4F64
:101420003B681D68002D66D0DFF8F480DFF8F4A07B
:10143000DFF8F490002523E00191FFF727F8A36A75
:10144000019904F1180013B1FFF720F80199E06A3F
:10145000D8F800200123834000EB800013430AEBFF
:101460008000C8F80030FEF7EDFFD9F800203B6897
:10147000E16AD26A1B68914228BF0125002B3AD04D
:101480003B68DB68DC686368211D9E420846D3D256
:10149000CBF8003004E01D4A1368013313600025C7
:1014A0001B4B1B68002B0CBF2846012003B0BDE876
:1014B000F08F154B174A1868174914681C601060A4
:1014C0000A6801320A601A6812685AB9DFF84CB02B
:1014D0004FF0FF33CBF80030DBF80030B3429ED939
:1014E0000025DDE71B68DFF834B0DB68DB685B688C
:1014F000CBF800308FE74FF0FF33CBF80030CFE769
:10150000F410002074110020A4100020F01000201E
:1015100078110020A8100020301100202C1100208C
:10152000FC100020AC100020A01000202DE9F04F8E
:1015300083B0FFF74BF83D4B1A68013A1A601B68FD
:10154000002B59D13A4B1B68002B55D0DFF8FCA07B
:10155000DAF80030002B65D0364DDFF8F480364FD6
:10156000DFF8F0900126DAF80C30DC6804F1040BA7
:1015700004F11800FEF78AFF5846FEF787FFE06A7D
:101580002A6806FA00F300EB80001343594608EB83
:1015900080002B60FEF756FF3B68E26ADB6A9A42E6
:1015A00032D3C9F80060DAF80030002BDBD1234BCE
:1015B0001A681268002A30D01A68214BD268D268A3
:1015C00052681A601F4E346844B10125FFF714FFBA
:1015D00008B1C9F80050013CF8D13460D9F80030A6
:1015E00053B1194B4FF080525A6040BFBFF34F8F39
:1015F000BFF36F8F012000E000200190FEF7F0FFA5
:10160000019803B0BDE8F08FDAF80030002BAAD1C2
:101610000A4B1A681268002ACED1094B4FF0FF32EC
:101620001A60CFE7DFF82C90CCE700BFF410002061
:10163000E8100020FC100020A0100020A4100020C2
:101640002C110020F010002000ED00E034110020EB
:10165000AC1000207811002070B548B91D4B4FF038
:1016600080525A6040BFBFF34F8FBFF36F8F70BD82
:10167000194A1A4913681A4D013313600E6804465B
:1016800028680430FEF702FF40B92B681549D86A74
:101690000B680122824023EA02030B602B68A41925
:1016A0005C600FD2104B186829680431FEF7D6FE33
:1016B0000E4B1A68944238BF1C60FFF737FF0028B2
:1016C000CCD070BD0A4B186829680431FEF7C6FEFD
:1016D000F3E700BF00ED00E0F410002074110020DB
:1016E000A0100020FC100020A41000202C110020CD
:1016F000A81000202DE9F84F334CDFF8E890334D67
:10170000334E344FDFF8E080DFF8E0B018E0FEF74A
:101710005DFFD9F80C30D3F80CA00AF10400FEF7F5
:10172000B5FE2B68013B2B602368013B2360FEF76D
:1017300057FFDAF83000FEF773FE5046FEF770FEF2
:101740002368002BE3D13368012B08D94FF0805375
:10175000CBF8043040BFBFF34F8FBFF36F8F3B68B0
:10176000012BD8F80030DB6A03D9002BE8D13368AD
:10177000E6E7002BE4D13368012BE1D8164B174A7A
:101780001B6812689B1A012BDAD9154A13680133BA
:1017900013603B68012BD8F80030DB6A04D903B929
:1017A0003368FFF7C3FECBE7002BFAD13368012B78
:1017B000F7D8094B1868094B1B68C01A0128F0D9E3
:1017C000FEF77CFFEDE700BFEC100020E8100020E2
:1017D000AC100020FC1000202C11002074110020FF
:1017E000F410002060110020A010002000ED00E0A7
:1017F000154B1B681BB1154B01221A60704713492A
:10180000134A0B601368C3B1B3FA83F3C3F11F0328
:1018100003EB8301890008319A000E48134400EB62
:10182000830301445A6852685A608A4204BF52686E
:101830005A60094BD2681A6070474FF0FF336FF05F
:101840000B016FF00302E8E7F4100020781100208C
:10185000FC100020AC100020A010002070B51C4D22
:101860002B680C4603F11801FEF7F8FD194B1E68B2
:1018700028680430FEF70AFE40B92B681649D86A7A
:101880000B680122824023EA02030B60631C17D01D
:101890002B68A4195C6007D3104B18682968BDE851
:1018A00070400431FEF7DABD0D4B18682968043129
:1018B000FEF7D4FD0B4B1A68944238BF1C6070BD14
:1018C00029680948BDE870400431FEF7BBBD00BF80
:1018D000A010002074110020FC100020A81000208F
:1018E000A41000202C1100204C110020F8B5214D2F
:1018F0002B680C4603F118011646FEF7A3FD1E4B9C
:101900001F6828680430EEB9FEF7C0FD50B92B6897
:101910001A49D86A0B680122824023EA02030B604D
:10192000631C1DD02B683C195C6011D2144B1868E5
:1019300029680431FEF792FD124B1A68944200D2D6
:101940001C60F8BDFEF7A2FD60B94FF0FF34DEE782
:101950000D4B18682968BDE8F8400431FEF77EBDDC
:10196000002EDFD029680948BDE8F8400431FEF7B1
:1019700069BD00BFA010002074110020FC100020E1
:10198000A41000202C110020A81000204C110020D1
:1019900070B5C368DC6804F1180582B02846FEF70C
:1019A00075FD1C4B1B6843BB211D1B4D0191084657
:1019B000FEF76CFDE26A2E681848019901239340F6
:1019C00002EB8202334300EB82002B60FEF73AFD0C
:1019D000134BE26A1B68DB6A9A4282BF114B0120FB
:1019E0001860114B1A68126898BF002052B90F4B4B
:1019F0004FF0FF321A6002B070BD0D482946FEF765
:101A000021FDE5E71A68094BD268D26852681A606E
:101A100002B070BDF4100020FC100020AC100020BB
:101A2000A010002078110020A41000202C1100200C
:101A300034110020034A044B12681B68C0E90023DC
:101A4000704700BF3011002074110020F0B50D4622
:101A500083B00446FEF7BAFD2B68144A591C10687F
:101A60001DD0DFF84CC0D4E90061DCF80070BE4244
:101A700008D0814206D801200190FEF7B1FD0198FF
:101A800003B0F0BD471ABB420BD91B1A0B44DCF85C
:101A9000001012682B600020C4E90012ECE700205F
:101AA000EAE700232B600120E6E700BF7411002065
:101AB00030110020014B01221A607047781100207C
:101AC000094B186818B9094B1B6813B170470020FF
:101AD0007047074A074B10681B68013B984214BFC8
:101AE00001200220704700BF34110020781100202F
:101AF0004C110020E8100020054B1B6833B1054B4A
:101B00001B68002B0CBF022000207047012070478B
:101B100048110020F410002068B1F0B5C36BC16A11
:101B2000826B013B914283B00446C36300D023B172
:101B3000002003B0F0BD00207047011D0846019150
:101B4000FEF7A4FC0199B8B11448154EA36BD6F862
:101B500000C0E362012505FA03F2C3F1030703EBBA
:101B6000830342EA0C0200EB8300A7613260FEF7B8
:101B700069FC284603B0F0BDE26A0848084E02EB53
:101B800082039B00C358002BE0D13368012505FA7E
:101B900002F223EA02023260D8E700BFAC10002054
:101BA000FC1000202DE9F0431D4EDFF87C9085B03D
:101BB0004FF000080CE0DB68DC681F68251D284634
:101BC000FEF764FC636A20469847E369012B0AD05C
:101BD00033681A68002AEED1124A11683160136026
:101BE00005B0BDE8F083A3693B449F42294610D36A
:101BF000D9F80030002BEBD0CDE900870294FFF735
:101C00007BFF0023D9F800001A466946FEF702FE62
:101C1000DEE7306863602461FEF720FCD8E700BF90
:101C20007C11002080110020B01100202DE9F04F20
:101C3000874E884CDFF82482874DDFF824A28BB0D2
:101C40003368D3F800B0BBF1000F00F0A580DB686B
:101C5000D3F800B0FFF7BAFBFFF7C0FB2268904251
:101C60008146C0F0AA808345206040F2BB800022FC
:101C70002868ABEB0901FFF769F9FFF757FC40B99A
:101C80004FF08053CAF8043040BFBFF34F8FBFF30B
:101C90006F8F2868002202A9FEF7EAFF0028CFD044
:101CA000029B002B6FDBDDF81090D9F814301BB1CC
:101CB00009F10400FEF7EAFBFFF790FB2368984266
:101CC0000746C0F08180029B2760092BE1D801A262
:101CD00052F823F0FD1C0000FD1C0000FD1C00005C
:101CE000931C0000571D00007F1D0000FD1C00001C
:101CF000FD1C0000931C0000571D00000398D9F83C
:101D00001830C9F81090C2182CBF01210021BA4226
:101D1000C9F804205BD8381A834228D8D9F824306F
:101D200048469847D9F81C302868012BB2D10028C2
:101D3000B0D0D9F81820039B00211344CDE907390E
:101D40000691FFF7D9FE002328681A4606A9FEF778
:101D500061FD28689EE7039BC9F81090DA19BA4222
:101D6000C9F81830C9F8042035D8002B91D0D8F81C
:101D7000000009F10401FEF771FB28688AE7484674
:101D8000FEF74EFB85E7039BDDE904019847029BC4
:101D9000002BFFF67EAF86E7FFF718FBFFF71EFB71
:101DA00022689042814608D3D8F80020C4F80090F9
:101DB0001268B2FA82F252095AE7FFF7F3FEC4F84A
:101DC0000090FFF7B3FB64E7FFF7ECFE7BE7B84258
:101DD00001D90029A2D0306809F10401FEF73EFBC9
:101DE000286857E7FFF7A2FB3268D268D768391D29
:101DF00008460191FEF74AFBF8690199012803D0D2
:101E00007B6A3846984744E7BA693F610BEB0200AA
:101E10004845786003D93068FEF720FBF0E7A9EB6E
:101E20000B039A420FD82B68002BE9D00023CDE991
:101E3000063B0897FFF760FE002328681A4606A9AC
:101E4000FEF7E8FCDCE7D8F80000FEF707FBD7E771
:101E50007C110020AC110020B01100208011002066
:101E600000ED00E0F0B5174C83B0FEF7AFFB25683E
:101E70007DB1FEF7B5FB206848B1134B01930223F7
:101E800000931249124800235022FFF7C5F803B00F
:101E9000F0BD104F104E3846FEF7C4FA3046FEF73C
:101EA000C1FA0E4A0E4B176010212A4620201E60F0
:101EB000FEF776FC20600028DBD00A49FFF734F8F3
:101EC000D7E700BFB0110020B41100200C4800007B
:101ED0002D1C000084110020981100207C1100208E
:101EE00080110020044800002DE9F04F074683B020
:101EF0002820884616461D46FEF766FA044688B135
:101F0000DFF87090FEF762FBD9F8002072B1FEF79F
:101F100067FB0C9B2760C4E9068625626362201D6F
:101F2000FEF78CFA204603B0BDE8F08FDFF848B02A
:101F3000DFF848A001925846FEF774FA5046FEF7C3
:101F400071FA0949094BC1F800B0019AC3F800A021
:101F500010212020FEF724FCC9F800000028D6D06C
:101F60000349FEF7E1FFD2E77C1100208011002039
:101F700004480000B01100208411002098110020B6
:101F800050B5144E346885B0C4B10529CDE90012AE
:101F900002900BDCFFF7B0FD022812D0002330685E
:101FA0001A466946FEF736FC05B050BD1A46204673
:101FB00000236946FEF7DEFD05B050BD204605B0A2
:101FC00050BD3068089A00236946FEF723FC05B02F
:101FD00050BD00BFB011002000B585B00346002100
:101FE00001AA44F20100CDE90111039300F004F8C5
:101FF00005B05DF804FB00BF72B6094B1B68DB0738
:1020000000D500BEBFF34F8F0649074BCA6802F4E4
:10201000E0621343CB60BFF34F8F00BFFDE700BF0B
:10202000F0ED00E000ED00E00400FA0572B6024AAF
:102030001368013313607047B8110020034A136816
:10204000013B136003B962B6704700BFB8110020AE
:1020500010B568B90E4CA368012262703BB1D3E998
:1020600000230020A2609847A368002BF7D110BD81
:102070000128FCD1064C2369A070002BF7D0D3E9CE
:1020800000230120226198472369002BF7D110BD5E
:10209000BC11002010B50D4C237882B043B18520CF
:1020A0000B4BD3F800340BB10123A37002B010BD69
:1020B00008486360A3602361E36000F0F5FA0190D3
:1020C00000F0FEFA012301982370E9E7BC1100201B
:1020D000000001405120000038B5154DAB78044692
:1020E00073B110B14368012098470020FFF79EFFAD
:1020F000EB680133EB600020BDE83840FFF79EBF7E
:1021000003F0FF00FFF792FF64B12A6942B19442E5
:1021100008D0134601E09C4204D01B68002BFAD182
:1021200022602C61EB68002BE2D100F0DBFADFE7E4
:10213000BC110020F0B404797E4B04EBC40503EB22
:10214000850586B095F82060002E40F0E6800E6888
:10215000771C4FEAC4051BD01F2E4FF001078ABF22
:10216000DFF8D4C14FF0A04C06F01F0607FA06F6C0
:10217000CCF808650E681F2E86BF06F01F066E4F4E
:102180004FF0A04706F5E0764FF0030C47F826C065
:102190004E68771C0CD01F2E86BF06F01F06664FB8
:1021A0004FF0A04706F5E0764FF0000C47F826C048
:1021B00006688F69C6F8247591F814C04E7D0768CB
:1021C00046EA0C06C7F86C65D1E9007C0668C6F8DB
:1021D0000C75C6F814C50E7D012E66D02E1903EBC2
:1021E00086077A600F6943F82670002A4BD006688C
:1021F000097F524F0022C6F81021D6F810610196CF
:102200000668DDF804C0C6F82021D6F820610296E1
:102210000668DDF808C0C6F82421D6F824610396C4
:102220000668DDF80CC0C6F84421D6F8446104966F
:102230000668DDF810C0C6F85821D6F85861026863
:102240000596059EC2F80473026842F30736002E15
:102250004FEA123265DB06F1604606F56146490138
:10226000C9B286F80013016841F30732002A4FEA29
:10227000113609DB324F0121520906F01F0601FA1F
:1022800006F647F8226001682C4403EB8403002221
:102290000820C1F8000501241046C3E9062283F88E
:1022A00020405A6106B0F0BC70478E68771C0CD095
:1022B0001F2E86BF06F01F06DFF87CC04FF0A04C33
:1022C00006F5E07600274CF82670CE68771C1CD007
:1022D0001F2E8ABFDFF860C04FF0A04C06F01F062B
:1022E000012707FA06F6CCF80865CE681F2E88BFCE
:1022F00006F01F0606F5E0768CBFDFF83CC04FF015
:10230000A04C03274CF82670CE680768D1F808C0A7
:10231000C7F80865C7F810C560E7082006B0F0BC2C
:102320007047084E02F00F0249011644C9B23176D7
:1023300099E700BFD01100200003005010034200B5
:1023400000E100E0FCEC00E0F0B401F06044B4F126
:10235000005F82B02CD10579274E05EBC50406EB52
:10236000840403466069EF0000283ED16261A160E9
:102370001A68C2F82001D2F820C11A68CDF804C04A
:10238000DDF804C0C2F85801D2F8582100921A684A
:10239000DDF800C0D4F814C0C2F84415C2F848C52E
:1023A0001A6801219160626832B102B0F0BC7047D6
:1023B000102002B0F0BC70471A6800E0C8B9D2F82B
:1023C0002011D2F858010029F8D090B90121D1602C
:1023D0001B68D3F85821002AFBD07B1906EB830336
:1023E00000225A6102B0F0BC7047112002B0F0BC6C
:1023F00070470F20F1E700BFD01100200379054A94
:1024000003EBC30302EB83035869003818BF0120B4
:10241000704700BFD011002001F06043B3F1005FAE
:102420005ED1F0B40479474D04EBC40605EB860693
:1024300082B07668E30026B107684FF4047CC7F8E1
:1024400008C3234405EB83039C694CBB9A61DC61A0
:10245000D9600368C3F81041D3F81061036801968E
:10246000019EC3F84441D3F8444103680094009CA2
:10247000C3F83415C3F83825036801221A600479BB
:1024800004EBC40305EB8303E6005B6853B3036806
:102490004FF40472C3F80423002002B0F0BC70476C
:1024A000DC69002C37D11961DA610368C3F8104187
:1024B000D3F8106103680196019EC3F84441D3F834
:1024C000444103680094009CC3F83415C3F83825D0
:1024D0000268D2F8003243F02003C2F80032CEE79F
:1024E00010207047036801E0E9B910BBD3F8102150
:1024F000D3F84411D3F82401002AF5D0344400283D
:102500004FF0000305EB840518BF0320994218BF64
:102510000F20AB61C1E796B103684FF40472C3F8B2
:1025200004231120B9E7344405EB84050F20AA6188
:10253000B3E7344405EB84050320A961ADE711201E
:10254000ABE700BFD011002030B5554BD3F82421A4
:102550008BB0002A71D00021C3F82411D3F82421B4
:10256000049202228DF81820049AD3F880044D4A70
:10257000C3F880040990D3F83C05D3680890C2E9F9
:10258000061107931168536806A89847444BD3F87F
:10259000442152B1434A0021C3F84411D3F84441C5
:1025A00090690394039C002838D13D4BD3F8202137
:1025B0005AB10021C3F82011D3F820210292012042
:1025C000384A029CD8605069D8B9354BD3F85821A5
:1025D000AAB10021C3F85811D3F85801314A01902B
:1025E0000198506958B1D3F84C05936808908DF85C
:1025F00018105161079306A8D2E9001398470BB051
:1026000030BDD3F84C05936808908DF818105161CF
:10261000079306A8D2E900139847D6E7D3F83C35CC
:10262000D06808930123C2E9061107908DF818308D
:1026300006A8D2E900139847B7E7D3F8101100298C
:10264000A4D0C3F81021D3F81011164805910599AC
:102650008469D3F83C15A14298D1C469A4B1D3F8D8
:102660000052846125F02005C3F80052D0E90343ED
:10267000C26101220891C3600168436807948DF824
:10268000182006A8984781E7C26884610123CDE934
:1026900007218DF81830D0E9001306A8984775E790
:1026A00000200040D0110020044A137923B90121F1
:1026B000106091801846704785207047F411002003
:1026C000074B1A68D20704D4C02283F800230122E2
:1026D0001A604FF080430122C3F81825704700BFED
:1026E00000E100E010B4094B094A0021196083B0F1
:1026F0001B680193019C4FF0804102200123C1F827
:102700000403136003B05DF8044B704704010040FC
:102710000800004010B5174B1A6882B062B1002162
:10272000154A19601B68507900934FF080410123CE
:10273000009CC1F8083398B1104B1A68BAB1002256
:102740001A601B6801934FF0804202210A4B0198E6
:10275000C2F808131B68012002B0BDE810401847FA
:10276000116853718847054B1A68002AE7D102B0F7
:1027700010BD00BF00010040F41100200401004022
:10278000F0B5264C94F86A3083B0002B42D14FF656
:10279000FF70FF255A09012A0CBF02464FF0FF3295
:1027A00003F01F01CA40D20748BFE21803F101033A
:1027B00048BF82F83050302BECD14FF0FF334FF050
:1027C000FF364FF0FF370622002115482366C4E983
:1027D0000233C4E90433C4E90633C4E90833C4E965
:1027E0000A33C4E9006701F0D5FF0E4BC02283F81D
:1027F000062340221A600C4B0C4A002018601B680C
:10280000019301214FF00043019D84F86A10C2F842
:10281000043300E0082003B0F0BD00BF0012002028
:102820006412002000E100E07C6100400060004094
:10283000034B93F86A00003818BF0120704700BFAF
:102840000012002070B44B4B1A1892F9304001343A
:1028500002D0082070BC70478C78E4B11A6801324D
:102860007DD05A6801327CD09A6801327BD0DA6818
:10287000013272D01A69013277D05A69013276D0AA
:102880009A69013233D0DA69013208BF07222FD0AA
:10289000042070BC7047FE2382F830304B78012B47
:1028A0004ED01F2887BF344A00F01F0101464FF069
:1028B000A04201238B40C2F80C351F288BBF00F0CB
:1028C0001F0303462C4A4FF0A04203F5E073032197
:1028D00042F82310C208294900F007008C5C01234C
:1028E00003FA00F020438854002070BC7047062291
:1028F000940004F1804404F5C0441D18002643F8F8
:10290000226085F83020D4F810350A784D7823F409
:10291000991323F4F85312042D05C4F8103505F467
:10292000801502F4403203022A4303F47C53D4F8A6
:10293000105513432B43C4F810354B78012BB0D1FD
:102940001F2887BF0C4A00F01F0101464FF0A0422C
:1029500001238B40C2F80835AFE70322C8E7002205
:10296000C6E70122C4E70222C2E70422C0E705222B
:10297000BEE700BF001200200003005064120020D8
:1029800030B4184B1A1892F93020D1B2072909D85F
:10299000154C02F5A2724FF0FF3543F8215000218B
:1029A00044F822100344FF2283F830200F49C20864
:1029B00000F007058C5C0123AB401C4210D01F289F
:1029C00088BF00F01F0000F5E0708CBF084C4FF08E
:1029D000A044022544F82050885C20EA03038B546D
:1029E00030BC7047001200200060004064120020DC
:1029F00000030050074B184490F930309B0003F15E
:102A0000804303F5C043D3F8102542F00302C3F816
:102A10001025704700120020054B184490F9300033
:102A20000C308000C0B200F1804000F5C04070471B
:102A300000120020054B184490F930001830800037
:102A4000C0B200F1804000F5C04070470012002085
:102A50000A4B1844003990F930304FEA830303F1F0
:102A6000804303F5C04318BF0121D3F8102522F499
:102A7000801242EA0151C3F810157047001200207D
:102A80002DE9F047002384B0CDE90233D54A11681F
:102A9000012900F040821E46D34B1A68012A00F03B
:102AA0002C82D24B1A68012A00F01982D04B1A6886
:102AB000012A00F00682CF4B1A68012A00F0F38148
:102AC000CD4B1A68012A00F0E081CC4B1A68012A2C
:102AD00000F0CD81CA4B1A68012A00F0A181C94BD0
:102AE0001A68012A20D0E6B1C74F01250024A300AF
:102AF00003F18043354203F5C0434FEA45050BD04F
:102B0000D3F8100557F82420D3F81015C0F305208A
:102B1000C1F3014102B190470134082CE7D1002EE6
:102B200017DB04B0BDE8F08700221A601B68019330
:102B30004FF0A042019BD2F82015B44B0291C2F88D
:102B40002015D3F820250392C3F82025002E40F04D
:102B50008B81AD4CAD4E01254FF0A04794F960003C
:102B6000431C46D0C0F3C20204AB1A4400F0070372
:102B700012F8082C05FA03F31A42C1B200F03F0024
:102B800037D01F2800F2258102464FF0A04909EBFB
:102B9000820304EB000ED3F800C7D3F8008728F4B3
:102BA0004038C3F80087CCF3014C9EF93080D3F84D
:102BB00000E754F82880BCF1020F0CBF4FF4403AF4
:102BC0004FF4003A05FA02F24EEA0A0EC3F800E7A3
:102BD000C9F82025B8F1000F0BD08909032900F0AE
:102BE000B381BCF1020F00F0BE81BCF1030F00F015
:102BF000A88194F96100411C46D0C0F3C20204AB25
:102C00001A4400F0070312F8082C05FA03F31A42DD
:102C1000C1B200F03F0037D01F2800F2DE8002462C
:102C20004FF0A04909EB820304EB000ED3F800C774
:102C3000D3F8008728F44038C3F80087CCF3014C60
:102C40009EF93080D3F800E754F82880BCF1020FD9
:102C50000CBF4FF4403A4FF4003A05FA02F24EEA44
:102C60000A0EC3F800E7C9F82025B8F1000F0BD011
:102C70008909032900F06D81BCF1020F00F06B811E
:102C8000BCF1030F00F0628194F96200421C46D04F
:102C9000C0F3C20204AB1A4400F0070312F8082C78
:102CA00005FA03F31A42C1B200F03F0037D01F28E3
:102CB00000F2AE8002464FF0A04909EB820304EB1C
:102CC000000ED3F800C7D3F800879EF930E028F44F
:102CD0004038C3F80087CCF3014CD3F800A754F870
:102CE0002E80BCF1020F0CBF4FF4403E4FF4003E6B
:102CF00005FA02F24EEA0A0EC3F800E7C9F82025E9
:102D0000B8F1000F0BD08909032900F01381BCF141
:102D1000020F00F02481BCF1030F00F0088194F948
:102D20006300431C45D0C0F3C20204AB1A4400F058
:102D3000070312F8082C05FA03F31A42C1B200F097
:102D40003F0036D01F2867D802464FF0A04909EB54
:102D5000820304EB000ED3F800C7D3F8008728F4F1
:102D60004038C3F80087CCF3014C9EF93080D3F88B
:102D700000E754F82880BCF1020F0CBF4FF4403A32
:102D80004FF4003A05FA02F24EEA0A0EC3F800E7E1
:102D9000C9F82025B8F1000F0BD08909032900F0EC
:102DA000CE80BCF1020F00F0E280BCF1030F00F016
:102DB000C380D7F820250292C7F82025D6F8203501
:102DC0000393C6F8203513437FF4C8AE04B0BDE8C2
:102DD000F08701F01F02B146D9E601F01F02B146AB
:102DE00020E700BF0061004004610040086100402E
:102DF0000C61004010610040146100401861004007
:102E00001C6100407C610040001200200003005063
:102E100001F01F02B14650E701F01F02B14696E7EC
:102E2000554AD2F8042312067FF559AE00221A60E3
:102E300019680091196E0098012903F1600346F0AA
:102E400080067FF450AE1A601B6801934FF0A042D9
:102E5000019BD2F82015494B0291C2F82015D3F8F6
:102E600020250392C3F8202546F000463CE6424A5E
:102E7000D2F8042351067FF52DAE00221A601B689C
:102E80000093009B46F0400624E63B4AD2F8042318
:102E900090067FF51AAE00221A601B680093009B13
:102EA00046F0200611E6344AD2F80423D4067FF512
:102EB00007AE00221A601B680093009B46F01006C4
:102EC000FEE52D4AD2F8042315077FF5F4AD002264
:102ED0001A601B680093009B46F00806EBE5264A43
:102EE000D2F8042357077FF5E1AD00221A601B6872
:102EF0000093009B46F00406D8E51F4AD2F804234D
:102F000092077FF5CEAD00221A601B680093009BEC
:102F100046F00206C5E51849D1F8046316F001062B
:102F20003FF4BAAD136013680093009BB4E5022927
:102F30007FF4F5AEC047F2E602297FF43AAFC0470E
:102F400037E702297FF455AEC04752E602297FF4E5
:102F50009BAEC04798E601297FF496AEF9E70129B8
:102F60007FF4DDAEE6E701297FF443AEECE701290B
:102F70007FF41FAFE3E700BF006000400003005094
:102F800059B142B1531E1A4005D18260016083805D
:102F9000C26010467047092070470E20704700BF7E
:102FA00010B48468C26803468088121B904203D222
:102FB00004205DF8044B7047DA681C68024000206A
:102FC000A154DA680132DA605DF8044B704700BF43
:102FD00003468068DA6890420DD010B498689A88E9
:102FE0001C6802400020A25C0A709A6801329A6054
:102FF0005DF8044B70470520704700BF30B504787A
:10300000012C83B004D0022C2CD0ECB103B030BD25
:10301000037A002B35D04368264D19782846FFF7F0
:10302000BFFF00283AD0244B01901B688DF8004068
:1030300068469847A968EB68AA885B1A9A4220D22A
:103040001E4B01221A70E1E71D491E48FFF7C0FF21
:10305000F0B1194B03221B688DF800206846984791
:1030600003B030BDC36818491848019301228DF898
:103070000040FFF7D1F9104B68461B68984703B032
:1030800030BD114911480122FFF7C6F903B030BD28
:103090000B490E480122FFF757F9B7E7AA68EB681A
:1030A0009A42C7D0044B8DF800001B6868469847C9
:1030B000C0E700BF701200206C12002080120020B8
:1030C0009812002084120020941200200400002096
:1030D0002DE9F0432B4C89B0226000294DD08A881D
:1030E00080460C46284809689946FFF749FF10B109
:1030F00009B0BDE8F083A289A1682448FFF740FF2A
:103100000028F5D1224D98F810C0D8F800700FCDE6
:103110006C460FC495E80F0098F811500197BCF168
:10312000000C18BF4FF0010C002DD8E9026584E8AF
:103130000F0014BF0E230023D8F804408DF815307B
:10314000144AD8F8143014488DF81C906946CDE91B
:1031500002568DF814C00693009400F081F8002800
:10316000C6D1D8F800300D4A01331070C0D00C49D8
:103170000C480122FFF750F9BAE7072009B0BDE873
:10318000F08300BF6C120020701200208412002017
:1031900014480000FD2F00000000002080120020D5
:1031A000941200200400002070B50B4D01460B481E
:1031B0002E78FFF70DFF04460EB9204670BD0023A0
:1031C000074908482B700122FFF726F90028F4D0A0
:1031D000FEF702FF204670BD801200207012002012
:1031E000941200200400002010B501460C48FFF79F
:1031F000D7FE044608B1204610BD0A48FFF7FEF886
:103200000028F8D108490648FFF7E2FE0028F2D16D
:10321000BDE81040044903480122FFF795B800BFFC
:1032200084120020040000209812002030B585B0E0
:10323000047845688DF80040D0E90240064A074B03
:10324000039053F82130019552F821108DF8084071
:103250006846984705B030BD9C120020A41200209B
:103260002DE9F0430D46074616460FCD89B06C4652
:103270000FC495E80F00DFF83880DFF838C0DFF8BA
:103280003890354617F8046B002D84E80F00864609
:10329000694638460CBF2A46424649F826504CF843
:1032A00026E00496FEF746FF09B0BDE8F08300BFB4
:1032B0002D3200009C120020A41200202DE9F041C4
:1032C000134DDFF850800F4605EB41050024012621
:1032D0002B5D5BB12B5D013BDBB22B552B5D384683
:1032E00053B958F827301B68DB69984714B12EB9D9
:1032F000BDE8F0810124EBE70026F7E7054B53F822
:1033000027300221BDE8F041586800F0A9BE00BF97
:103310001C150020AC1200202DE9F04F0368054673
:1033200093F82100022883B071D1164601EB4102C7
:1033300003EB82020C4652689642B0464FEA4109BE
:1033400000F0A7806868DFF888A103791AF80320E5
:10335000FF2AD1B214D0FE2909D000685A4A01F5DB
:10336000A87150F8211052F82320914203D0112067
:1033700003B0BDE8F08FFF220AF803206B681B79C9
:10338000FE220AF803202F6897F8200000F024FDA1
:10339000002E40D0BB699E4280F0848004EB440B39
:1033A00007EB8B024FEA8B0B526893425BD0002AEB
:1033B00059D0964257D268680023032100F0EAFDF5
:1033C000696857F80B00096809EB040307EB8303EE
:1033D00001F5A6719A7A97F82030CDE90031002ADC
:1033E0006BD0FFF727FBDDE900310246184600F0FD
:1033F000B7FC97F8200000F0D9FC6A68324B1279CC
:103400000AF802406A68127943F8226030E0082026
:1034100003B0BDE8F08F09EB040B07EB8B0BB04654
:103420009BF8090000F0D8FC9BF8080000F0BEFCF7
:103430006B681B79FF220AF80320A14407EB890778
:10344000C7F804802B68DB6943B36A681F4B1279A5
:1034500003EB420302211955686800F0E9FD0020E2
:1034600003B0BDE8F08F6B681B79FF220AF80320D8
:10347000324609EB040607EB8606686800232146FE
:1034800000F088FD307A00F091FC707A00F08EFC3C
:10349000D3E7DB6913B16A6810799847002003B05D
:1034A000BDE8F08F09EB040607EB86061FFA83F8E8
:1034B000307A00F091FC707AB8E7FFF7ADFADDE9F9
:1034C0000031024692E700BFC81200201C15002000
:1034D000C01200202DE9F04F0368054693F8210043
:1034E000022883B07AD11E8B6B480C4601EB410158
:1034F00003EB810102FB06F2A0FB02024968C2F362
:103500004F16B1424FEA52124FEA440800F0A98028
:103510006F68DFF890913B7919F80310FF29C8B262
:1035200014D0FE2809D03F685C4900F5A87057F810
:10353000200051F82310884203D0112003B0BDE8C9
:10354000F08FFF2109F803106B681B79FE2109F841
:1035500003102F681FFA82FA97F8200000F03CFC55
:10356000BAF1000F3ED0BB699E4280F0838004EB2D
:10357000440A07EB8A024FEA8A0A5268934258D0FB
:10358000002A56D0964254D268680023032100F0E6
:1035900001FD6A6897F820B0116857F80A0008EB37
:1035A000040307EB830301F5A6719B7A0191002BBD
:1035B0006CD0FFF73FFA01990246584600F0D0FB65
:1035C00097F8200000F0F2FB6A68344B127909F892
:1035D00002406A68127943F822602FE0082003B0A5
:1035E000BDE8F08F08EB040B07EB8B0B56469BF8FE
:1035F000090000F0F1FB9BF8080000F0D7FB6B68B6
:103600001B79FF2209F80320A04407EB88077E609E
:103610002B68DB6953B36A68214B127903EB4203D1
:1036200002211955686800F003FD002003B0BDE8D1
:10363000F08F6B681B79FF2209F8032008EB04095F
:1036400007EB8909686800233246214600F0A2FC96
:1036500099F8080000F0AAFB99F8090000F0A6FB11
:10366000D2E7DB6913B16A6810799847002003B08C
:10367000BDE8F08F08EB040A07EB8A0A9EB29AF8BD
:10368000080000F0A9FB9AF80900B6E7FFF7C4F9B3
:103690000199024691E700BF1F85EB51C812002037
:1036A0001C150020C01200202DE9F04F87B0002922
:1036B00000F02F82056895F821300446002B40F079
:1036C000AD8090460E4600F057FD10B1852840F0C1
:1036D000A781FFF7ADF8002800F09A81C54BDFF80D
:1036E0002CA31B68FF2203F0F0030021303B85F878
:1036F00020204FF6FF774FF0FF3218BF0123E97209
:10370000E9752F812A60AA82EA6005F120008AF813
:10371000003000F0D3FA8146002840F02082336860
:103720005A1C40F0818073685F1C40F0EF800DF1FF
:10373000100B3369B3F5805F22D3B3F5005FC0F09F
:103740006582B3F5804FC0F06482B3F5004FC0F0DE
:103750006382B3F5803FC0F06282B3F5003FC0F0F2
:103760006182B3F5802FC0F06082B3F5002FC0F006
:103770005F82B3F5801F34BF4FF008094FF009098D
:103780009AF8003023B1B9F1010F38BF4FF00109A9
:1037900060688DF8109000224FF4E0638DF81120DE
:1037A000ADF812300379944A0593594600F02AFB8C
:1037B0008146002840F07181636836691B68D3F840
:1037C0001035DBB2310FC3F12002360101FA02F2EB
:1037D000DE40203B21FA03F316431E43AE616068CE
:1037E000012700F0D3FB00973246606804230221D2
:1037F00000F0EEFB6068022100F032FCC5F81C808E
:1038000063687E481B797E4A40F82340FF21484682
:10381000D15485F8217007B0BDE8F08F4FF008094A
:10382000484607B0BDE8F08F276897F82120002AA6
:1038300040F0FC8096F808B087F80AB07860032161
:1038400022688DF81010927A0293B2FA82F252092D
:103850004FF0010C04A918468DF811208DF812C004
:10386000FEF7F0FF002840F05A81029B3B60BBF15D
:10387000000F40F058811F2B00F2C4814FF0A0418F
:10388000012202FA03F3C1F8083507F1080000F03D
:1038900015FA002840F0438107F1090000F00EFA04
:1038A000002840F03C81387A00F096FA787A00F0EF
:1038B00093FABBF1000F00F08C813868FFF7BAF87B
:1038C000024638680292FFF7A7F8029A83466368B7
:1038D000387A196801F5A07100F042FA6368787AC5
:1038E00019685A4601F5A47100F03AFA0123FB72F7
:1038F0006268444B177900221146204603F81720CE
:10390000FFF70AFD73685F1C3FF411AF276897F853
:103910002120002A40F08A80717AB9753A612268C4
:10392000029103218DF81010927D03930DF1100B7D
:10393000B2FA82F252094FF0010C594618468DF83E
:1039400011208DF812C0FEF77DFF002840F0E780BF
:103950000299039BFB60002940F0EF801F2B86BF7C
:10396000294903F01F034FF0A041012202FA03F39B
:10397000C1F8083507F1140000F0A0F9002840F064
:10398000CE8007F1150000F099F9002840F0C780BB
:10399000387D00F021FA787D00F01EFA029BF8686D
:1039A000002B00F02181FFF745F80246F8680292EB
:1039B000FFF732F8029A03466168387D096802937E
:1039C00001F5A27100F0CCF96268029B1168787D64
:1039D0001A4601F5A47100F0C3F90121F975626876
:1039E000084B107903EB4003002220465A70FFF782
:1039F00093FC9EE6E80F00F0BD320000AC12002000
:103A0000C01200201C15002000030050DC12002012
:103A1000FEF7B6FE00283FF461AE4FF00309FFE663
:103A20004FF00409484607B0BDE8F08F4FF0080991
:103A300097F8200000F076F9387AFF2840F08A8065
:103A4000787AFF2803D000F06DF9FF237B72386885
:103A5000451C04D0FEF794FF4FF0FF333B60387DE8
:103A60000023FF28FB7203D000F05CF9FF233B75B5
:103A7000787DFF2803D000F055F9FF237B75F868A7
:103A8000411C04D0FEF77CFF4FF0FF33FB600023A6
:103A9000FB75606800F034FAC2E6256895F82000EE
:103AA00000F040F9287AFF2803D000F03BF9FF230B
:103AB0002B72687AFF2803D000F034F9FF236B7271
:103AC0002868421C04D0FEF75BFF4FF0FF332B60E9
:103AD000287D0023FF28EB7203D000F023F9FF2399
:103AE0002B75687DFF2803D000F01CF9FF236B7550
:103AF000E868431C04D0FEF743FF4FF0FF33EB6050
:103B00000023EB75606800F0FBF9484607B0BDE89C
:103B1000F08F4FF00B09484607B0BDE8F08F2768DB
:103B20004FF0040984E71F2B68D84FF0A041012211
:103B300002FA03F3C1F80C35A7E61F2B86BF3E49F6
:103B400003F01F034FF0A041012202FA03F3C1F872
:103B50000C350FE700F0E6F8FF233B7270E72568AD
:103B600095F8200000F0DEF8287AFF2802D000F057
:103B7000D9F82F72687AFF2803D000F0D3F8FF231A
:103B80006B722868461C04D0FEF7FAFE4FF0FF3334
:103B90002B60287D0023FF28EB7203D000F0C2F8D1
:103BA000FF232B75687DFF2803D000F0BBF8FF23AF
:103BB0006B75E868411C04D0FEF7E2FE4FF0FF335E
:103BC000EB600023EB75606800F09AF94FF0040990
:103BD00026E63868FEF720FF024638680292FEF7B4
:103BE00029FF029A834672E6FEF716FF0246F8683E
:103BF0000292FEF71FFF029A0346DDE60E4903F02C
:103C00001F0394E70C4903F01F0339E64FF0010945
:103C1000B6E54FF00209B3E54FF00309B0E54FF008
:103C20000409ADE54FF00509AAE54FF00609A7E53F
:103C30004FF00709A4E500BF00030050F8B5D0E934
:103C400000531C4E1A79EB7A002706F812700446CE
:103C5000B3B96268EB7D127906EB420600277770F4
:103C6000DBB96368144A1B79FF21D154606800F006
:103C70008DF9606800F07CF9022385F82130F8BDE9
:103C800003682868997AB1FA81F14909FEF7E0FEE4
:103C90002868FEF7AFFE6F60DBE72368E868997D70
:103CA000B1FA81F14909FEF7D3FEE868FEF7A2FEFA
:103CB0002F61D6E71C150020C01200202DE9F84F17
:103CC000164DDFF85C80814600264FF0010A03E0C4
:103CD000FEF7B4F9A5431BD0F7B200200AFA07F4A7
:103CE000FEF7A4F92C424FF0000006F10106EFD0D8
:103CF000D8F8003014EA030BEAD11C43584689F87F
:103D00000070C8F80040FEF799F95846BDE8F88FF2
:103D10004FF0040B5846BDE8F88F00BFFFFF0F00BF
:103D2000E0120020012310B503FA00F4C4F31303DA
:103D30000BB9072010BD084B0020C3F80845FEF75B
:103D400075F9064A1368002023EA04041460FEF79C
:103D500075F9002010BD00BF00F00140E012002006
:103D6000D9B1D2B10123834010B4C3F3130484B199
:103D70000D4C2468234212D0C00000F1804303F5AB
:103D8000F8330020C3F81015C3F814255DF8044B70
:103D9000704707205DF8044B70470E2070470820DD
:103DA0005DF8044B704700BFE0120020012202FAC8
:103DB00000F3C3F313021AB1054A1268134204D088
:103DC000044A0020C2F8043570470820704700BF3D
:103DD000E012002000F00140012202FA00F3C3F3D8
:103DE00013021AB1054A1268134204D0044A002093
:103DF000C2F8083570470820704700BFE012002065
:103E000000F00140F0B507793A4E07EB470406EBA6
:103E1000840583B02B7A002B68D1A4004FEA470CAD
:103E200032514A686A6042797AB11A461D469B004F
:103E3000046803F5A0730132E550E3584479019317
:103E4000D3B29C42DDF804E0F1D80268CB7842F3AB
:103E50000734002C4FEA123240DB04F1604404F5D1
:103E600061445B01DBB284F80033026842F307333C
:103E7000002B4FEA123409DB1F4D01225B0904F0CD
:103E80001F0402FA04F445F823400268D2F80445FE
:103E90004B7824F0030403F003032343C2F80435F2
:103EA00004688B78D4F8082503F0030322F003029A
:103EB0001343C4F8083500680B78D0F81025674420
:103EC00022F00F0203F00F0306EB870613430121D4
:103ED000C0F810350020317203B0F0BD074C02F07D
:103EE0000F025B011444DBB22376BEE7082003B067
:103EF000F0BD00BFE412002000E100E0FCEC00E0B7
:103F0000036843F30732002A10B40FDB190B520980
:103F1000154C2032012301F01F0103FA01F144F88E
:103F20002210BFF34F8FBFF36F8F0368D3F80022C7
:103F30000E4A0021C3F8001203684FF0FF34C3F8A3
:103F40000843036801241C61037903EB430302EB7C
:103F500083031C72037903EB430302EB83021172A8
:103F60005DF8044B704700BF00E100E0E412002060
:103F70000368054A01211960037903EB430302EB4F
:103F8000830302221A727047E412002003680122A0
:103F9000DA60704770B44FF4803483B08C409BB1CA
:103FA0008B00056803F5A0730026EE50ED580368FA
:103FB0000195019DC3F80443036801F5A87143F816
:103FC000212003B070BC70470368C3F80843F3E7CF
:103FD000F0B4076840F20115D7F800428D4024EA9A
:103FE0000504C7F80042056882B0D5F800429DF884
:103FF000186023434FF48034C5F800328C409EB1E2
:104000008B00056803F5A0730026EE50ED58036899
:104010000195019DC3F80443036801F5A87143F8B5
:10402000212002B0F0BC70470368C3F80843F3E7EF
:1040300010B48B0003F5A07304689BB20022E25019
:1040400083B0E45801944FF4803202FA01F103681E
:10405000019AC3F8041303B05DF8044B704700BF26
:1040600002684FF4803303FA01F1C2F80813704775
:104070002DE9F041114CDFF84C80114E82B0002543
:104080004FF48037236807FA05F101357BB1D8F882
:104090000423A4F5004011424FF0000380B206D083
:1040A000236023680193D6E90031019A9847042DD3
:1040B00004F10404E6D102B0BDE8F0814081004083
:1040C000E4120020008000402DE9F041114CDFF89F
:1040D0004C80114E82B000254FF48037236807FAD8
:1040E00005F101357BB1D8F8042304F5E040114215
:1040F0004FF0000380B206D0236023680193D6E915
:104100000331019A9847042D04F10404E6D102B06A
:10411000BDE8F08140910040E41200200090004092
:104120002DE9F041114CDFF84C80114E82B0002592
:104130004FF48037236807FA05F101357BB1D8F8D1
:10414000042304F5C04011424FF0000380B206D0B2
:10415000236023680193D6E90631019A9847042D1C
:1041600004F10404E6D102B0BDE8F08140A10040B2
:10417000E412002000A00040034B187810B901227F
:104180001A7070478520704708130020704700BFE1
:104190000120FCF7D1B800BF00B50E4D0E4C83B026
:1041A000286800220DF10701FCF762FD01280CD000
:1041B0009DF80720303A02EB8202520092B20021B1
:1041C0002046FFF787F91128F2D06420FDF744FA62
:1041D000E6E700BF8C150020B448000038B50E4D4E
:1041E00001242246002128460134FFF773F9E4B286
:1041F0000A20FDF731FA642CF3D163242246002112
:104200002846013CFFF766F9A4B20A20FDF724FA1C
:10421000002CE6D0F2E700BFBC480000F0B50478FF
:10422000022C87B03CD0012C3AD00CB107B0F0BDC5
:10423000404F414E0DF10700FEF7B6FF9DF8070015
:10424000FEF7D2FF3B789DF80720F2543B4901333B
:1042500030463B7000F0AEFA054630B32046FCF71E
:1042600047F8374B93E8070003AB03C323F8022B4F
:1042700003AE120C1A70354604E015F8010BFEF778
:10428000B3FF0134304600F08DFAA042F5D8642225
:104290000021294800F07EFA00233B7007B0F0BDF2
:1042A0004068FDF799FE07B0F0BD2649304600F0A2
:1042B00081FA0446B0B12846FCF72CF8224B93E86B
:1042C000070003AE2C4686E80700354604E015F8E3
:1042D000010BFEF789FF0134304600F063FAA0427B
:1042E000F5D8D4E79DF80730303B092B9ED8174B03
:1042F00093E8030003AE86E803000DF10B0504E02C
:1043000015F8010FFEF770FF0134304600F04AFA4D
:10431000A042F5D864220021074800F03BFA0C4A7D
:10432000002310683B700DF1070102AAFCF722FC84
:104330007CE700BF941500202815002034480000B9
:10434000404800003C4800004C480000584800002D
:104350008C150020F0B5012097B0FCF707F8FDF7A9
:1043600099FE002871D13F4D0FCD06AC0FC42B68CC
:104370003D4A3E48236006A9FFF796F900286ED112
:104380003B4D3A48FFF75AFC0FCD0BAC0FC42B68DE
:10439000354A384823600BA9FFF786F900285BD11E
:1043A0003448354DFFF74AFC344B02930FCD10AC27
:1043B0000FC495E8030084E80300314C314A4FF400
:1043C0008075072302A910A8CDE904450395FEF7DF
:1043D0007FFE2D4B019302232C490093A022002342
:1043E00004462B48FCF718FE2A4B2B492B48012585
:1043F000CDE900534FF482720023FCF70DFE284BE9
:1044000000932A464FF47A7100232648FDF76CFD8D
:10441000254B06461860FCF7E1FF002702463B46A5
:10442000294630460097FDF7ABFD3A462946032062
:10443000FCF7B6F91D4B1E4A1860136943F00403DC
:1044400013612CB9FCF7E0FEFEE7FDF7C5FD8AE736
:104450002046FDF7C1FDF5E7FDF7BEFDA0E7FDF73E
:10446000BBFD8DE7744800008D410000B44800009A
:1044700088480000BC4800009C4800000C13002045
:104480000C1400201D420000901500206048000020
:10449000DD4100009C1500206848000099410000A3
:1044A000914100006C480000981500208C150020F8
:1044B00000ED00E010B4814B1B68082B21D0804A2E
:1044C000D2F8883043F47003C2F88830BFF34F8FBE
:1044D000BFF36F8F794B1B68082B00F0AA804FF059
:1044E0001023D3F80022002AC0F2B680D3F8043299
:1044F000002BC0F2B180734B734A1A605DF8044B15
:1045000070474FF080414FF080520020C1F80C01FD
:104510006E4BC1F81001C1F83805D2F80414C3F885
:104520002015D2F80814C3F82415D2F80C14C3F8D7
:104530002815D2F81014C3F82C15D2F81414C3F8A7
:104540003015D2F81814C3F83415D2F81C14C3F877
:104550004015D2F82014C3F84415D2F82414C3F837
:104560004815D2F82814C3F84C15D2F82C14C3F807
:104570005015D2F83014C3F85415D2F83414C3F8D7
:104580006015D2F83814C3F86415D2F83C04C3F8A7
:1045900068054F49D2F84004C3F86C050968D2F8A1
:1045A0004424C3F87025052937D84A4B5B5C13B106
:1045B000494B4A4A1A604A4B5B5C63B13F4B4949DD
:1045C0001B68434AFB20C1F81805082B11687FF4CB
:1045D00076AF052921D8444B5B5C93B14348444BEB
:1045E000364C02681B682468394922F00F0203F038
:1045F0000F031343082C096803607FF460AF05299B
:104600000BD83C4B5B5C43B12C4B3B4A1B684FF4D3
:104610000071082B11607FF452AF4FF08043D3F844
:104620000024D2077FF54BAF6FF00102C3F80024DE
:1046300045E7274B1B68052B08D94FF010224FF098
:104640008043D2F80822C3F8582548E72B4AD35CA8
:10465000002B3FF444AFF0E7294A0123C2F80435A8
:10466000D2F80034002BFBD04FF010231221244A43
:10467000C3F80012D2F80034002BFBD04FF0102307
:1046800012211F4AC3F80412D2F80034002BFBD0C9
:1046900000231B49C2F80435D1F80034002BFBD0AD
:1046A000BFF34F8F0649174BCA6802F4E062134309
:1046B000CB60BFF34F8F00BFFDE700BF300100109C
:1046C00000ED00E00C0000200090D00300C000408E
:1046D00034010010DC4800008C5600404881030083
:1046E000DC48000000F00040DC480000E40E004020
:1046F00058020010DC48000040960240D4480000F8
:1047000000E001400400FA0508B5074B044613B168
:104710000021AFF30080054B1868836A03B1984706
:10472000204600F05FF800BF00000000E4480000F1
:1047300070B50D4D0D4C641BA4100026A64209D186
:104740000B4D0C4C00F050F8641BA4100026A64240
:1047500005D170BD55F8043B98470136EEE755F892
:10476000043B98470136F2E77000002070000020FB
:1047700070000020740000200A44914200F1FF33D1
:1047800000D1704710B511F8014B03F8014F914269
:10479000F9D110BD02440346934200D1704703F89B
:1047A000011BF9E7034613F8012B002AFBD1181A65
:1047B00001387047F0B50C7864B103461A78184692
:1047C0005E1C0AB9104605E0944208D10D4615F862
:1047D000012F02B9F0BD13F8017F9742F7D033469D
:1047E000ECE70000FEE700BFF8B500BFF8BC08BC6E
:1047F0009E467047F8B500BFF8BC08BC9E4670479F
:104800000D0E0F10546D725100000000546D722097
:1048100053766300FFFFFFFFFFFFFFFFFFFFFFFF78
:10482000FFFFFFFF00000000000000000000D601B5
:104830000600000068696768000000006C6F770080
:104840000D0A4C4544204F4E0D0A00000D0A4C4500
:1048500044204F46460D0A000D0A50574D0D0A00E0
:104860004C4544320000000050574D004C45443147
:104870000000000010000000FFFFFFFF000000002C
:1048800001000000E80300000F000000FFFFFFFF31
:104890000000000001000000E80300000800000024
:1048A00006000000050000000700000000000000F6
:1048B0000000D601A0150020C4480000C415002047
:1048C000CC480000009000400104000000A000401F
:1048D00002040000000000000101000001000000CF
:0C48E0000000000010000020000000009C
:0848EC0054B9FF7F0100000038
:1048F4000000000000200040000000000090D003F1
:1049040000000000000000000000000000000000A3
:104914000000000000000000000000000000000093
:104924000000000000000000000000000000000083
:104934000000000000000000000000000000000073
:104944000000000000000000000000000000000063
:104954000000000000000000000000000000000053
:08496400250200000102000021
:04000003000002B542
:00000001FF
