:1000000000000420B5020000DD020000DF02000055
:10001000E1020000E3020000E50200000000000031
:10002000000000000000000000000000CD040000FF
:10003000E902000000000000ED040000ED020000F5
:1000400015270000EF02000049250000EF02000024
:10005000EF020000EF02000081270000EF02000025
:10006000EF020000EF020000EF020000EF020000CC
:10007000EF020000EF020000EF020000EF020000BC
:10008000EF020000F5050000EF020000EF020000A3
:10009000EF020000EF020000EF020000EF0200009C
:1000A000EF020000EF020000EF020000EF0200008C
:1000B000EF020000EF02000000000000000000005E
:1000C000EF020000EF020000EF020000EF0200006C
:1000D000EF020000EF020000EF020000EF0200005C
:1000E000EF020000EF020000EF020000000000003D
:1000F00000000000EF02000000000000EF0200001E
:1001000000000000000000000000000000000000EF
:1001100000000000000000000000000000000000DF
:1001200000000000000000000000000000000000CF
:1001300000000000000000000000000000000000BF
:1001400000000000000000000000000000000000AF
:10015000000000000000000000000000000000009F
:10016000000000000000000000000000000000008F
:10017000000000000000000000000000000000007F
:10018000000000000000000000000000000000006F
:10019000000000000000000000000000000000005F
:1001A000000000000000000000000000000000004F
:1001B000000000000000000000000000000000003F
:1001C000000000000000000000000000000000002F
:1001D000000000000000000000000000000000001F
:1001E000000000000000000000000000000000000F
:1001F00000000000000000000000000000000000FF
:1002000010B5054C237833B9044B13B10448AFF350
:1002100000800123237010BD80000020000000003A
:10022000B035000008B5034B1BB103490348AFF3D9
:10023000008008BD0000000084000020B0350000F0
:10024000154B002B08BF134B9D46A3F5803A0021A8
:100250008B460F461348144A121A03F027F90F4B26
:10026000002B00D098470E4B002B00D09847002061
:10027000002104000D000D48002802D00C48AFF307
:10028000008003F0E1F82000290002F029FF03F0CC
:10029000C7F800BF000008000000042000000000B4
:1002A0000000000080000020381500200000000041
:1002B000000000000649074A074B9B1A03DD043B78
:1002C000C858D050FBDC02F081FFFFF7B9FF0000F7
:1002D000BC3500000000002080000020FEE7FEE7A3
:1002E000FEE7FEE7FEE7FEE7FEE7FEE7FEE7FEE7E6
:1002F000064B1A5C1F2A86BF054902F01F024FF009
:10030000A04101239340C1F80C3570471835000017
:1003100000030050064B1A5C1F2A86BF054902F0F5
:100320001F024FF0A04101239340C1F808357047E8
:1003300018350000000300500A4B185C1F288ABFC4
:1003400009494FF0A04100F01F00D1F80435012207
:10035000824022EA03001340C1F80805C1F80C35B9
:10036000704700BF1835000000030050C20730B4CA
:100370000ED483070AD54FF0A0430C22C3F82C27D4
:10038000C3F83027C3F86027C3F8642730BC704730
:100390004FF0A0430322C3F834274FF40055C3F8AD
:1003A00038274FF48044C3F83C274FF40041C3F88A
:1003B00040274FF48032C3F80855C3F80845C3F806
:1003C0000815C3F80825D4E738B5430704461CBF11
:1003D00020F00704083400F0F9FF0E4A13689BB1BF
:1003E0000D4A156840F6F7712C448C4207D8A54297
:1003F00005D21D44146001F099F8284638BD002547
:1004000001F094F8284638BD044B23F0070313602D
:10041000E6E700BF9C000020A0100020A8000020FC
:10042000704700BF00F108034FF0FF310022C0E920
:100430000333816002604360704700BF00230361A3
:10044000704700BF43684B609A688A60516099604A
:100450000861036801330360704700BF30B40D6862
:100460006B1C10D000F108031C465B681A68AA4296
:10047000FAD94B6099608C60616008610368013350
:1004800030BC0360704704696368F2E7D0E9011289
:1004900003698A60416851605A68824204BF826879
:1004A0005A60002202611A68013A1A60186870479F
:1004B0000548006880F3088862B661B6BFF34F8FC5
:1004C000BFF36F8F00DF00BF00000000064B19680C
:1004D0000868B0E8F04F80F30988BFF36F8F4FF0E2
:1004E000000080F311887047A8100020EFF3098006
:1004F000BFF36F8F144B1A681EF0100F08BF20ED6A
:10050000108A20E9F04F10604DF8043D4FF0400094
:1005100080F31188BFF34F8FBFF36F8F01F068F93D
:100520004FF0000080F3118808BC19680868B0E833
:10053000F04F1EF0100F08BFB0EC108A80F309884E
:10054000BFF36F8F704700BFA8100020402383F3D4
:100550001188FEE730B46FF00203084C40F8081C25
:100560004FF0807540F8202C40F8045C40F80C4CAB
:1005700040F8243C30BC4438704700BF4D050000B3
:100580000F4C08B5E02384F8223000F077F80D4BCB
:100590000D4A00211960D4F8883043F47003C4F880
:1005A0008830536843F040435360236943F010039D
:1005B0002361FFF77DFF402383F31188FEE700BF2F
:1005C00000ED00E0A410002030EF00E0402383F3B2
:1005D0001188024A1368013313607047A410002089
:1005E000034A1368013B13600BB983F3118870470A
:1005F000A410002070B51D4B00221A6082B01B6849
:100600000193019BEFF31186402383F3118818496E
:10061000184BD1F804451A601B680093009B00F04A
:10062000DDFE201A20F07F4323F0010320F07F45F8
:100630009BB96C1E6DB1002500F0DEFE013C631C11
:1006400045EA0005F8D125B10B4B4FF080525A60B6
:1006500040BF86F3118802B070BD01F04DFA022848
:10066000E7D000F0C9FE0546EDE700BF40110140AC
:10067000001001400011014000ED00E038B50020FD
:1006800001F02AFD0A4B0B4D0B491F20C3F808054A
:1006900001220224E020C3F804232A601A60C3F870
:1006A000444381F811034FF400330B6038BD00BFA1
:1006B000001001400810014000E100E0F0B50446E0
:1006C00085B072B6314DD5F8046501F0F9F900280E
:1006D00042D02F4F2F4BA74228BF2746F21922F0B6
:1006E0007F4201210020C5F80813C5F84025186095
:1006F0001A6801924FF480320198C5F80423BFF3C1
:100700004F8F64B3244B20BFD3F80011D3F80421DA
:100710000A43F8D01D4A1F4C20494FF48030C2F8DC
:1007200008030020206024680394039C0860096883
:10073000029101210298C2F80413D2F80425921BF9
:1007400022F07F40B8424FF4003228BF3846C3F849
:10075000802108B100F048FE62B605B0F0BDC5F8D2
:1007600008231C601A680D4B0392039A1C601B68D7
:100770000293094B029AC5F804134FF40032D5F8DE
:100780000415C3F8802162B605B0F0BD0010014029
:10079000FDFFFF004011014000E100E000110140B9
:1007A00070B506460D4651B100FB01F04830FFF729
:1007B0000BFE044658B300F14803036005E04820EF
:1007C000FFF702FE044610B32460C4E90F65FFF78B
:1007D000FDFED4E90F132268A26001FB03F1CB1ADE
:1007E000134400200A44FF21A063E36084F844100E
:1007F000626084F8451004F11000FFF713FE04F165
:100800002400FFF70FFEFFF7EBFE204670BD00242B
:10081000204670BD2DE9F047044684B01F46019282
:10082000884600F12406FFF7D1FEA26BE36BDFF8E8
:1008300040939A424FF0000A7CD3022F00F0E880E8
:10084000019D002D00F0128102ADBAF1000F00F001
:10085000DB80FFF7C5FE00F0B9FDFFF7B7FE94F8A7
:100860004430FF2B04BF002384F8443094F8453013
:10087000FF2B04BF002384F84530FFF7B1FE284664
:1008800001A901F0E3F8002840F0F680FFF79EFE92
:10089000A26BE36B9A4261D0FFF7A2FEFFF796FED0
:1008A00094F845506DB2002D05DC12E06B1E13F07C
:1008B000FF0F5DB20DD0636A304653B101F068F8A6
:1008C0000028F3D001F0F6F86B1E13F0FF0F5DB2B5
:1008D000F1D1FF2384F84530FFF782FEFFF776FE63
:1008E00094F844506DB2002D15DD04F1100A04E0B7
:1008F0006B1E13F0FF0F5DB20DD02369504653B14C
:1009000001F046F80028F3D001F0D4F86B1E13F084
:10091000FF0F5DB2F1D1FF2384F84430FFF760FE92
:1009200000F004FEFFF752FEA26BE36B9A424FF019
:10093000010A82D2226CA56B002A40F0E78026686B
:10094000002E00F0F9800135A563636A002B7CD18D
:10095000FFF746FE012004B0BDE8F08704F1100A5D
:10096000FFF73EFE0199504600F078FFFFF72EFE9C
:1009700094F845506DB2002D05DC12E06B1E13F0AB
:10098000FF0F5DB20DD0636A304653B101F000F83D
:100990000028F3D001F08EF86B1E13F0FF0F5DB24C
:1009A000F1D1FF2384F84530FFF71AFEFFF70EFE62
:1009B00094F844506DB2002D05DC12E06B1E13F06C
:1009C000FF0F5DB20DD02369504653B100F0E0FF38
:1009D0000028F3D001F06EF86B1E13F0FF0F5DB22C
:1009E000F1D1FF2384F84430FFF7FAFD00F09EFDBB
:1009F000002897D14FF08053C9F8043040BFBFF3AF
:100A00004F8FBFF36F8F8DE7284601F013F820E773
:100A1000226CA56B002A92D04146E06802F038FDB6
:100A2000226CE36821689B1A8B42E360C2F10002EA
:100A300004D263681A44E260022F84D1002D83D16E
:100A40000123A363636A002B82D004F1240000F029
:100A50009FFF00283FF47CAF454B4FF080525A6017
:100A600040BFBFF34F8FBFF36F8F71E7FFF7B8FD44
:100A7000284604B0BDE8F087FFF7A8FD94F845507C
:100A80006DB2002D15DD04F1240604E06B1E13F099
:100A9000FF0F5DB20DD0636A304653B100F078FFAE
:100AA0000028F3D001F006F86B1E13F0FF0F5DB2C3
:100AB000F1D1FF2384F84530FFF792FDFFF786FD63
:100AC00094F844506DB2002D15DD04F1100604E0D9
:100AD0006B1E13F0FF0F5DB20DD02369304653B18A
:100AE00000F056FF0028F3D000F0E4FF6B1E13F077
:100AF000FF0F5DB2F1D1FF2384F84430FFF770FDA2
:100B000000F014FD002004B0BDE8F087414607BBAB
:100B1000A06802F0BDFCA368216C62680B4493429C
:100B2000A360FFF410AF0135A563636A2268A26079
:100B3000002B3FF40DAF88E76068013500F0ECFF53
:100B4000A563636A6660002B7FF47FAF002883D1C2
:100B5000FEE6E06802F09CFC226CE36821689B1AC8
:100B60008B42E360C2F10002BFF466AF61E700BFF1
:100B700000ED00E02DE9F043044683B016469946A7
:100B8000EFF31188402282F31188806BE26B904270
:100B90001ED3022B05D0002088F3118803B0BDE8D6
:100BA000F08394F84550226CA76B6DB232BB23687A
:100BB000002B47D001376B1CA76335D001356DB2D0
:100BC00084F84550012088F3118803B0BDE8F08314
:100BD00094F84550226CA76B6DB2002AE7D0002B29
:100BE00038D1A06802F054FCA368216C62680B4401
:100BF0009342A36024BF2368A360DBE7E06802F0B0
:100C000047FC226CE0682168801A8842E060C2F1EB
:100C1000000205D261680A44E260B9F1020FC9D14D
:100C2000012F38BF0127C6E7636A002BCAD004F141
:100C3000240000F0ADFE0028C4D0002EC2D0012058
:100C40003060A9E76068019300F066FF019B636074
:100C50000137B0E7E06802F01BFC226CE068216815
:100C6000801A8842E060C2F10002D6D2D2E700BF0B
:100C70002DE9F043044685B00F460192FFF7A6FC2C
:100C8000A56B002D40F02781019B002B00F0D28046
:100C900002A800F0CFFEDFF88C8204F12406FFF7F3
:100CA0009FFC00F093FBFFF791FC94F84430FF2B7E
:100CB00004BF002384F8443094F84530FF2B04BF70
:100CC000002384F84530FFF78BFC01A902A800F04F
:100CD000BDFE00285BD1FFF779FCA36B002B40F031
:100CE000AF80FFF77DFC0199304600F0B7FDFFF7BC
:100CF0006DFC94F845506DB2002D05DC12E06B1EC2
:100D000013F0FF0F5DB20DD0636A304653B100F0AF
:100D10003FFE0028F3D000F0CDFE6B1E13F0FF0F56
:100D20005DB2F1D1FF2384F84530FFF759FCFFF79E
:100D30004DFC94F844506DB2002D15DD04F11009FE
:100D400004E06B1E13F0FF0F5DB20DD0236948461F
:100D500053B100F01DFE0028F3D000F0ABFE6B1E77
:100D600013F0FF0F5DB2F1D1FF2384F84430FFF799
:100D700037FC00F0DBFB002853D14FF08053C8F85C
:100D8000043040BFBFF34F8FBFF36F8F49E0FFF7D1
:100D90001DFC94F845506DB2002D05DC12E06B1E71
:100DA00013F0FF0F5DB20DD0636A304653B100F00F
:100DB000EFFD0028F3D000F07DFE6B1E13F0FF0F57
:100DC0005DB2F1D1FF2384F84530FFF709FCFFF74E
:100DD000FDFB94F844506DB2002D15DD04F11009AF
:100DE00004E06B1E13F0FF0F5DB20DD0236948467F
:100DF00053B100F0CDFD0028F3D000F05BFE6B1E78
:100E000013F0FF0F5DB2F1D1FF2384F84430FFF7F8
:100E1000E7FB00F08BFBFFF7D9FBA36B53B1FFF7A8
:100E2000DFFBFFF7D3FBA56B002D54D1019B002BFB
:100E30007FF435AFFFF7D4FB002005B0BDE8F083A9
:100E4000FFF7CEFBFFF7C2FB94F845506DB2002DC3
:100E500005DC12E06B1E13F0FF0F5DB20DD0636A6C
:100E6000304653B100F094FD0028F3D000F022FE8C
:100E70006B1E13F0FF0F5DB2F1D1FF2384F84530F4
:100E8000FFF7AEFBFFF7A2FB94F844506DB2002DC4
:100E900015DD04F1100904E06B1E13F0FF0F5DB2C5
:100EA0000DD02369484653B100F072FD0028F3D0FD
:100EB00000F000FE6B1E13F0FF0F5DB2F1D1FF23B7
:100EC00084F84430FFF78CFB00F030FBFFF77EFB2B
:100ED000A56B002DAAD0226C52B1E1686368114461
:100EE0009942E16024BF2168E160384602F0D0FAFF
:100EF000013DA56323692BB9FFF772FB012005B003
:100F0000BDE8F08304F1100000F042FD0028F3D0AA
:100F1000044B4FF080525A6040BFBFF34F8FBFF376
:100F20006F8FE9E700ED00E0074B1A681AB19A6885
:100F300002B17047012210B403EBC20443F832102F
:100F400060605DF8044B7047B414002070B504462F
:100F50000E461546FFF73AFB94F84430FF2B04BFCA
:100F6000002384F8443094F84530FF2B04BF00235D
:100F700084F84530FFF734FBA36B002B45D0FFF717
:100F800025FB94F845506DB2002D15DD04F12406C3
:100F900004E06B1E13F0FF0F5DB20DD0636A3046A4
:100FA00053B100F0F5FC0028F3D000F083FD6B1E78
:100FB00013F0FF0F5DB2F1D1FF2384F84530FFF746
:100FC0000FFBFFF703FB94F844506DB2002D15DDC5
:100FD00004F1100604E06B1E13F0FF0F5DB20DD09C
:100FE0002369304653B100F0D3FC0028F3D000F061
:100FF00061FD6B1E13F0FF0F5DB2F1D1FF2384F88A
:101000004430BDE87040FFF7EBBA2A46314604F1A0
:10101000240000F06BFCB2E72DE9F84F9600804603
:1010200030460D469946FFF7CFF9002800F08A8038
:1010300007464820FFF7C8F90446002800F08F80D3
:10104000076332463846A52102F030FA2B7884F83F
:1010500034302B78D4F830B063B16B7884F8353005
:101060006B783BB1AB7884F83630AB7813B1EB7862
:1010700084F837300A9D022D28BF02254FF0000A60
:10108000271DE562A563384684F837A0C4F83CA064
:10109000043EFFF7D3F9C5F1030504F118005E44DF
:1010A000FFF7CCF9C4F840A0A56126F0070084F84A
:1010B00044A0246164624A464146FFF74BFA0B9B09
:1010C000206003B11C60FFF781FA3F4ADFF82C81F2
:1010D000136801331360D8F80030002B48D0DFF8D4
:1010E0002091D9F800308BB3E36A384ADFF814C195
:1010F0001668DCF800E0364801252E44166005FA33
:1011000003F203EB830342EA0E0200EB830039464D
:10111000CCF80020FFF796F9FFF762FAD9F8003013
:101120001BB3D8F80020E36AD26A9A421DD2294B39
:101130004FF080525A6040BFBFF34F8FBFF36F8FA5
:10114000284601E04FF0FF30BDE8F88FD8F80020C6
:10115000E36AD26A9A4298BFC8F80040C5E73846A9
:10116000FFF75EF94FF0FF30EEE72846BDE8F88F55
:10117000C8F800401368012B03D0E36ADFF88090C1
:10118000B3E71348144E154DDFF87490FFF74AF992
:101190001348FFF747F91348FFF744F93046FFF7C4
:1011A00041F92846FFF73EF90F48FFF73BF90F4892
:1011B000FFF738F90E48FFF735F90E4B0E4A166067
:1011C0001D60E36A91E700BFF010002000110020CD
:1011D000B410002000ED00E0081100201C110020D8
:1011E000C8100020DC1000203C11002068110020F5
:1011F00054110020B0100020AC100020A8100020D6
:1012000050110020041100202DE9F843F020FFF7D1
:10121000DBF8002878D005464820FFF7D5F80446CB
:10122000002873D0F022A5210563284602F03EF97C
:101230000025514B636304F10408266BE5624046C8
:10124000C4E90E55FFF7FAF804F11800FFF7F6F8B5
:10125000032306F1EC002A4648492564A36120F0E7
:101260000700246184F844506462FFF773F9444B2B
:1012700020601C60FFF7AAF9424A434F136801330C
:1012800013603B68002B4DD0404D2B68002B42D0A3
:10129000E36A3F4ADFF82CC11668DCF800E03D48FD
:1012A0000136166001229A4003EB830342EA0E02E4
:1012B00000EB83004146CCF80020FFF7C3F8FFF7AE
:1012C0008FF92B686BB13A68E36AD26A9A4208D206
:1012D000314B4FF080525A6040BFBFF34F8FBFF386
:1012E0006F8F00F0BFFD01280ED1402383F31188DA
:1012F0002A4B2B494FF0FF3400220C6028601A6003
:10130000BDE8F843FFF73CB9BDE8F8832846BDE8DF
:10131000F843FFF785B83A68E36AD26A9A4298BF01
:101320003C60B6E73C601368012B02D0E36A174DBE
:10133000AFE71848DFF890901A4E144DFFF772F897
:101340001948FFF76FF81948FFF76CF84846FFF7A0
:1013500069F83046FFF766F81548FFF763F8154857
:10136000FFF760F81448FFF75DF8144B144AC2F811
:1013700000901E60E36A8CE749444C00F5160000BB
:1013800030110020F0100020A81000205011002083
:1013900000110020B410002000ED00E07C110020BE
:1013A000341100201C110020C8100020DC10002087
:1013B0003C1100206811002054110020B0100020C2
:1013C000AC1000200411002008110020024A13680C
:1013D00001331360704700BFFC100020014B1868F8
:1013E000704700BF7C110020024A13681844106047
:1013F000704700BF7C1100202DE9F04F404B1B6867
:1014000083B0002B47D13F4B1E6801361E60002E73
:101410004FD0DFF808B1DBF80030B34260D83A4F64
:101420003B681D68002D66D0DFF8F480DFF8F4A07B
:10143000DFF8F490002523E00191FFF727F8A36A75
:10144000019904F1180013B1FFF720F80199E06A3F
:10145000D8F800200123834000EB800013430AEBFF
:101460008000C8F80030FEF7EDFFD9F800203B6897
:10147000E16AD26A1B68914228BF0125002B3AD04D
:101480003B68DB68DC686368211D9E420846D3D256
:10149000CBF8003004E01D4A1368013313600025C7
:1014A0001B4B1B68002B0CBF2846012003B0BDE876
:1014B000F08F154B174A1868174914681C601060A4
:1014C0000A6801320A601A6812685AB9DFF84CB02B
:1014D0004FF0FF33CBF80030DBF80030B3429ED939
:1014E0000025DDE71B68DFF834B0DB68DB685B688C
:1014F000CBF800308FE74FF0FF33CBF80030CFE769
:10150000FC1000207C110020AC100020F8100020FE
:1015100080110020B010002038110020341100206C
:1015200004110020B4100020A81000202DE9F04F75
:1015300083B0FFF74BF83D4B1A68013A1A601B68FD
:10154000002B59D13A4B1B68002B55D0DFF8FCA07B
:10155000DAF80030002B65D0364DDFF8F480364FD6
:10156000DFF8F0900126DAF80C30DC6804F1040BA7
:1015700004F11800FEF78AFF5846FEF787FFE06A7D
:101580002A6806FA00F300EB80001343594608EB83
:1015900080002B60FEF756FF3B68E26ADB6A9A42E6
:1015A00032D3C9F80060DAF80030002BDBD1234BCE
:1015B0001A681268002A30D01A68214BD268D268A3
:1015C00052681A601F4E346844B10125FFF714FFBA
:1015D00008B1C9F80050013CF8D13460D9F80030A6
:1015E00053B1194B4FF080525A6040BFBFF34F8F39
:1015F000BFF36F8F012000E000200190FEF7F0FFA5
:10160000019803B0BDE8F08FDAF80030002BAAD1C2
:101610000A4B1A681268002ACED1094B4FF0FF32EC
:101620001A60CFE7DFF82C90CCE700BFFC10002059
:10163000F010002004110020A8100020AC100020A1
:1016400034110020F810002000ED00E03C110020D3
:10165000B41000208011002070B548B91D4B4FF028
:1016600080525A6040BFBFF34F8FBFF36F8F70BD82
:10167000194A1A4913681A4D013313600E6804465B
:1016800028680430FEF702FF40B92B681549D86A74
:101690000B680122824023EA02030B602B68A41925
:1016A0005C600FD2104B186829680431FEF7D6FE33
:1016B0000E4B1A68944238BF1C60FFF737FF0028B2
:1016C000CCD070BD0A4B186829680431FEF7C6FEFD
:1016D000F3E700BF00ED00E0FC1000207C110020CB
:1016E000A810002004110020AC10002034110020AC
:1016F000B01000202DE9F84F334CDFF8E890334D5F
:10170000334E344FDFF8E080DFF8E0B018E0FEF74A
:101710005DFFD9F80C30D3F80CA00AF10400FEF7F5
:10172000B5FE2B68013B2B602368013B2360FEF76D
:1017300057FFDAF83000FEF773FE5046FEF770FEF2
:101740002368002BE3D13368012B08D94FF0805375
:10175000CBF8043040BFBFF34F8FBFF36F8F3B68B0
:10176000012BD8F80030DB6A03D9002BE8D13368AD
:10177000E6E7002BE4D13368012BE1D8164B174A7A
:101780001B6812689B1A012BDAD9154A13680133BA
:1017900013603B68012BD8F80030DB6A04D903B929
:1017A0003368FFF7C3FECBE7002BFAD13368012B78
:1017B000F7D8094B1868094B1B68C01A0128F0D9E3
:1017C000FEF77CFFEDE700BFF4100020F0100020D2
:1017D000B410002004110020341100207C110020DE
:1017E000FC10002068110020A810002000ED00E08F
:1017F000154B1B681BB1154B01221A60704713492A
:10180000134A0B601368C3B1B3FA83F3C3F11F0328
:1018100003EB8301890008319A000E48134400EB62
:10182000830301445A6852685A608A4204BF52686E
:101830005A60094BD2681A6070474FF0FF336FF05F
:101840000B016FF00302E8E7FC100020801100207C
:1018500004110020B4100020A810002070B51C4D09
:101860002B680C4603F11801FEF7F8FD194B1E68B2
:1018700028680430FEF70AFE40B92B681649D86A7A
:101880000B680122824023EA02030B60631C17D01D
:101890002B68A4195C6007D3104B18682968BDE851
:1018A00070400431FEF7DABD0D4B18682968043129
:1018B000FEF7D4FD0B4B1A68944238BF1C6070BD14
:1018C00029680948BDE870400431FEF7BBBD00BF80
:1018D000A81000207C11002004110020B01000206E
:1018E000AC1000203411002054110020F8B5214D17
:1018F0002B680C4603F118011646FEF7A3FD1E4B9C
:101900001F6828680430EEB9FEF7C0FD50B92B6897
:101910001A49D86A0B680122824023EA02030B604D
:10192000631C1DD02B683C195C6011D2144B1868E5
:1019300029680431FEF792FD124B1A68944200D2D6
:101940001C60F8BDFEF7A2FD60B94FF0FF34DEE782
:101950000D4B18682968BDE8F8400431FEF77EBDDC
:10196000002EDFD029680948BDE8F8400431FEF7B1
:1019700069BD00BFA81000207C11002004110020C8
:10198000AC10002034110020B010002054110020B1
:1019900070B5C368DC6804F1180582B02846FEF70C
:1019A00075FD1C4B1B6843BB211D1B4D0191084657
:1019B000FEF76CFDE26A2E681848019901239340F6
:1019C00002EB8202334300EB82002B60FEF73AFD0C
:1019D000134BE26A1B68DB6A9A4282BF114B0120FB
:1019E0001860114B1A68126898BF002052B90F4B4B
:1019F0004FF0FF321A6002B070BD0D482946FEF765
:101A000021FDE5E71A68094BD268D26852681A606E
:101A100002B070BDFC10002004110020B4100020A2
:101A2000A810002080110020AC10002034110020EC
:101A30003C110020034A044B12681B68C0E90023D4
:101A4000704700BF381100207C110020F0B50D4612
:101A500083B00446FEF7BAFD2B68144A591C10687F
:101A60001DD0DFF84CC0D4E90061DCF80070BE4244
:101A700008D0814206D801200190FEF7B1FD0198FF
:101A800003B0F0BD471ABB420BD91B1A0B44DCF85C
:101A9000001012682B600020C4E90012ECE700205F
:101AA000EAE700232B600120E6E700BF7C1100205D
:101AB00038110020014B01221A607047801100206C
:101AC000094B186818B9094B1B6813B170470020FF
:101AD0007047074A074B10681B68013B984214BFC8
:101AE00001200220704700BF3C110020801100201F
:101AF00054110020F0100020054B1B6833B1054B3A
:101B00001B68002B0CBF022000207047012070478B
:101B100050110020FC10002068B1F0B5C36BC16A01
:101B2000826B013B914283B00446C36300D023B172
:101B3000002003B0F0BD00207047011D0846019150
:101B4000FEF7A4FC0199B8B11448154EA36BD6F862
:101B500000C0E362012505FA03F2C3F1030703EBBA
:101B6000830342EA0C0200EB8300A7613260FEF7B8
:101B700069FC284603B0F0BDE26A0848084E02EB53
:101B800082039B00C358002BE0D13368012505FA7E
:101B900002F223EA02023260D8E700BFB41000204C
:101BA000041100202DE9F0431D4EDFF87C9085B034
:101BB0004FF000080CE0DB68DC681F68251D284634
:101BC000FEF764FC636A20469847E369012B0AD05C
:101BD00033681A68002AEED1124A11683160136026
:101BE00005B0BDE8F083A3693B449F42294610D36A
:101BF000D9F80030002BEBD0CDE900870294FFF735
:101C00007BFF0023D9F800001A466946FEF702FE62
:101C1000DEE7306863602461FEF720FCD8E700BF90
:101C20008411002088110020B81100202DE9F04F08
:101C3000874E884CDFF82482874DDFF824A28BB0D2
:101C40003368D3F800B0BBF1000F00F0A580DB686B
:101C5000D3F800B0FFF7BAFBFFF7C0FB2268904251
:101C60008146C0F0AA808345206040F2BB800022FC
:101C70002868ABEB0901FFF769F9FFF757FC40B99A
:101C80004FF08053CAF8043040BFBFF34F8FBFF30B
:101C90006F8F2868002202A9FEF7EAFF0028CFD044
:101CA000029B002B6FDBDDF81090D9F814301BB1CC
:101CB00009F10400FEF7EAFBFFF790FB2368984266
:101CC0000746C0F08180029B2760092BE1D801A262
:101CD00052F823F0FD1C0000FD1C0000FD1C00005C
:101CE000931C0000571D00007F1D0000FD1C00001C
:101CF000FD1C0000931C0000571D00000398D9F83C
:101D00001830C9F81090C2182CBF01210021BA4226
:101D1000C9F804205BD8381A834228D8D9F824306F
:101D200048469847D9F81C302868012BB2D10028C2
:101D3000B0D0D9F81820039B00211344CDE907390E
:101D40000691FFF7D9FE002328681A4606A9FEF778
:101D500061FD28689EE7039BC9F81090DA19BA4222
:101D6000C9F81830C9F8042035D8002B91D0D8F81C
:101D7000000009F10401FEF771FB28688AE7484674
:101D8000FEF74EFB85E7039BDDE904019847029BC4
:101D9000002BFFF67EAF86E7FFF718FBFFF71EFB71
:101DA00022689042814608D3D8F80020C4F80090F9
:101DB0001268B2FA82F252095AE7FFF7F3FEC4F84A
:101DC0000090FFF7B3FB64E7FFF7ECFE7BE7B84258
:101DD00001D90029A2D0306809F10401FEF73EFBC9
:101DE000286857E7FFF7A2FB3268D268D768391D29
:101DF00008460191FEF74AFBF8690199012803D0D2
:101E00007B6A3846984744E7BA693F610BEB0200AA
:101E10004845786003D93068FEF720FBF0E7A9EB6E
:101E20000B039A420FD82B68002BE9D00023CDE991
:101E3000063B0897FFF760FE002328681A4606A9AC
:101E4000FEF7E8FCDCE7D8F80000FEF707FBD7E771
:101E500084110020B4110020B81100208811002046
:101E600000ED00E0F0B5174C83B0FEF7AFFB25683E
:101E70007DB1FEF7B5FB206848B1134B01930223F7
:101E800000931249124800235022FFF7C5F803B00F
:101E9000F0BD104F104E3846FEF7C4FA3046FEF73C
:101EA000C1FA0E4A0E4B176010212A4620201E60F0
:101EB000FEF776FC20600028DBD00A49FFF734F8F3
:101EC000D7E700BFB8110020BC1100202435000066
:101ED0002D1C00008C110020A01100208411002076
:101EE000881100201C3500002DE9F04F074683B013
:101EF0002820884616461D46FEF766FA044688B135
:101F0000DFF87090FEF762FBD9F8002072B1FEF79F
:101F100067FB0C9B2760C4E9068625626362201D6F
:101F2000FEF78CFA204603B0BDE8F08FDFF848B02A
:101F3000DFF848A001925846FEF774FA5046FEF7C3
:101F400071FA0949094BC1F800B0019AC3F800A021
:101F500010212020FEF724FCC9F800000028D6D06C
:101F60000349FEF7E1FFD2E7841100208811002029
:101F70001C350000B81100208C110020A011002099
:101F800050B5144E346885B0C4B10529CDE90012AE
:101F900002900BDCFFF7B0FD022812D0002330685E
:101FA0001A466946FEF736FC05B050BD1A46204673
:101FB00000236946FEF7DEFD05B050BD204605B0A2
:101FC00050BD3068089A00236946FEF723FC05B02F
:101FD00050BD00BFB811002000B585B003460021F8
:101FE00001AA44F20100CDE90111039300F004F8C5
:101FF00005B05DF804FB00BF72B6094B1B68DB0738
:1020000000D500BEBFF34F8F0649074BCA6802F4E4
:10201000E0621343CB60BFF34F8F00BFFDE700BF0B
:10202000F0ED00E000ED00E00400FA0572B6024AAF
:102030001368013313607047C0110020034A13680E
:10204000013B136003B962B6704700BFC0110020A6
:1020500010B568B90E4CA368012262703BB1D3E998
:1020600000230020A2609847A368002BF7D110BD81
:102070000128FCD1064C2369A070002BF7D0D3E9CE
:1020800000230120226198472369002BF7D110BD5E
:10209000C411002010B50D4C237882B043B18520C7
:1020A0000B4BD3F800340BB10123A37002B010BD69
:1020B00008486360A3602361E36000F0F5FA0190D3
:1020C00000F0FEFA012301982370E9E7C411002013
:1020D000000001405120000038B5154DAB78044692
:1020E00073B110B14368012098470020FFF79EFFAD
:1020F000EB680133EB600020BDE83840FFF79EBF7E
:1021000003F0FF00FFF792FF64B12A6942B19442E5
:1021100008D0134601E09C4204D01B68002BFAD182
:1021200022602C61EB68002BE2D100F0DBFADFE7E4
:10213000C4110020F0B404797E4B04EBC40503EB1A
:10214000850586B095F82060002E40F0E6800E6888
:10215000771C4FEAC4051BD01F2E4FF001078ABF22
:10216000DFF8D4C14FF0A04C06F01F0607FA06F6C0
:10217000CCF808650E681F2E86BF06F01F066E4F4E
:102180004FF0A04706F5E0764FF0030C47F826C065
:102190004E68771C0CD01F2E86BF06F01F06664FB8
:1021A0004FF0A04706F5E0764FF0000C47F826C048
:1021B00006688F69C6F8247591F814C04E7D0768CB
:1021C00046EA0C06C7F86C65D1E9007C0668C6F8DB
:1021D0000C75C6F814C50E7D012E66D02E1903EBC2
:1021E00086077A600F6943F82670002A4BD006688C
:1021F000097F524F0022C6F81021D6F810610196CF
:102200000668DDF804C0C6F82021D6F820610296E1
:102210000668DDF808C0C6F82421D6F824610396C4
:102220000668DDF80CC0C6F84421D6F8446104966F
:102230000668DDF810C0C6F85821D6F85861026863
:102240000596059EC2F80473026842F30736002E15
:102250004FEA123265DB06F1604606F56146490138
:10226000C9B286F80013016841F30732002A4FEA29
:10227000113609DB324F0121520906F01F0601FA1F
:1022800006F647F8226001682C4403EB8403002221
:102290000820C1F8000501241046C3E9062283F88E
:1022A00020405A6106B0F0BC70478E68771C0CD095
:1022B0001F2E86BF06F01F06DFF87CC04FF0A04C33
:1022C00006F5E07600274CF82670CE68771C1CD007
:1022D0001F2E8ABFDFF860C04FF0A04C06F01F062B
:1022E000012707FA06F6CCF80865CE681F2E88BFCE
:1022F00006F01F0606F5E0768CBFDFF83CC04FF015
:10230000A04C03274CF82670CE680768D1F808C0A7
:10231000C7F80865C7F810C560E7082006B0F0BC2C
:102320007047084E02F00F0249011644C9B23176D7
:1023300099E700BFD81100200003005010034200AD
:1023400000E100E0FCEC00E0F0B401F06044B4F126
:10235000005F82B02CD10579274E05EBC50406EB52
:10236000840403466069EF0000283ED16261A160E9
:102370001A68C2F82001D2F820C11A68CDF804C04A
:10238000DDF804C0C2F85801D2F8582100921A684A
:10239000DDF800C0D4F814C0C2F84415C2F848C52E
:1023A0001A6801219160626832B102B0F0BC7047D6
:1023B000102002B0F0BC70471A6800E0C8B9D2F82B
:1023C0002011D2F858010029F8D090B90121D1602C
:1023D0001B68D3F85821002AFBD07B1906EB830336
:1023E00000225A6102B0F0BC7047112002B0F0BC6C
:1023F00070470F20F1E700BFD81100200379054A8C
:1024000003EBC30302EB83035869003818BF0120B4
:10241000704700BFD811002001F06043B3F1005FA6
:102420005ED1F0B40479474D04EBC40605EB860693
:1024300082B07668E30026B107684FF4047CC7F8E1
:1024400008C3234405EB83039C694CBB9A61DC61A0
:10245000D9600368C3F81041D3F81061036801968E
:10246000019EC3F84441D3F8444103680094009CA2
:10247000C3F83415C3F83825036801221A600479BB
:1024800004EBC40305EB8303E6005B6853B3036806
:102490004FF40472C3F80423002002B0F0BC70476C
:1024A000DC69002C37D11961DA610368C3F8104187
:1024B000D3F8106103680196019EC3F84441D3F834
:1024C000444103680094009CC3F83415C3F83825D0
:1024D0000268D2F8003243F02003C2F80032CEE79F
:1024E00010207047036801E0E9B910BBD3F8102150
:1024F000D3F84411D3F82401002AF5D0344400283D
:102500004FF0000305EB840518BF0320994218BF64
:102510000F20AB61C1E796B103684FF40472C3F8B2
:1025200004231120B9E7344405EB84050F20AA6188
:10253000B3E7344405EB84050320A961ADE711201E
:10254000ABE700BFD811002030B5554BD3F824219C
:102550008BB0002A71D00021C3F82411D3F82421B4
:10256000049202228DF81820049AD3F880044D4A70
:10257000C3F880040990D3F83C05D3680890C2E9F9
:10258000061107931168536806A89847444BD3F87F
:10259000442152B1434A0021C3F84411D3F84441C5
:1025A00090690394039C002838D13D4BD3F8202137
:1025B0005AB10021C3F82011D3F820210292012042
:1025C000384A029CD8605069D8B9354BD3F85821A5
:1025D000AAB10021C3F85811D3F85801314A01902B
:1025E0000198506958B1D3F84C05936808908DF85C
:1025F00018105161079306A8D2E9001398470BB051
:1026000030BDD3F84C05936808908DF818105161CF
:10261000079306A8D2E900139847D6E7D3F83C35CC
:10262000D06808930123C2E9061107908DF818308D
:1026300006A8D2E900139847B7E7D3F8101100298C
:10264000A4D0C3F81021D3F81011164805910599AC
:102650008469D3F83C15A14298D1C469A4B1D3F8D8
:102660000052846125F02005C3F80052D0E90343ED
:10267000C26101220891C3600168436807948DF824
:10268000182006A8984781E7C26884610123CDE934
:1026900007218DF81830D0E9001306A8984775E790
:1026A00000200040D8110020044A137923B90121E9
:1026B000106091801846704785207047FC110020FB
:1026C000074B1A68D20704D4C02283F800230122E2
:1026D0001A604FF080430122C3F81825704700BFED
:1026E00000E100E010B4094B094A0021196083B0F1
:1026F0001B680193019C4FF0804102200123C1F827
:102700000403136003B05DF8044B704704010040FC
:102710000800004010B5174B1A6882B062B1002162
:10272000154A19601B68507900934FF080410123CE
:10273000009CC1F8083398B1104B1A68BAB1002256
:102740001A601B6801934FF0804202210A4B0198E6
:10275000C2F808131B68012002B0BDE810401847FA
:10276000116853718847054B1A68002AE7D102B0F7
:1027700010BD00BF00010040FC110020040100401A
:102780002DE9F047002384B0CDE90233D54A116822
:10279000012900F040821E46D34B1A68012A00F03E
:1027A0002C82D24B1A68012A00F01982D04B1A6889
:1027B000012A00F00682CF4B1A68012A00F0F3814B
:1027C000CD4B1A68012A00F0E081CC4B1A68012A2F
:1027D00000F0CD81CA4B1A68012A00F0A181C94BD3
:1027E0001A68012A20D0E6B1C74F01250024A300B2
:1027F00003F18043354203F5C0434FEA45050BD052
:10280000D3F8100557F82420D3F81015C0F305208D
:10281000C1F3014102B190470134082CE7D1002EE9
:1028200017DB04B0BDE8F08700221A601B68019333
:102830004FF0A042019BD2F82015B44B0291C2F890
:102840002015D3F820250392C3F82025002E40F050
:102850008B81AD4CAD4E01254FF0A04794F960003F
:10286000431C46D0C0F3C20204AB1A4400F0070375
:1028700012F8082C05FA03F31A42C1B200F03F0027
:1028800037D01F2800F2258102464FF0A04909EBFE
:10289000820304EB000ED3F800C7D3F8008728F4B6
:1028A0004038C3F80087CCF3014C9EF93080D3F850
:1028B00000E754F82880BCF1020F0CBF4FF4403AF7
:1028C0004FF4003A05FA02F24EEA0A0EC3F800E7A6
:1028D000C9F82025B8F1000F0BD08909032900F0B1
:1028E000B381BCF1020F00F0BE81BCF1030F00F018
:1028F000A88194F96100411C46D0C0F3C20204AB28
:102900001A4400F0070312F8082C05FA03F31A42E0
:10291000C1B200F03F0037D01F2800F2DE8002462F
:102920004FF0A04909EB820304EB000ED3F800C777
:10293000D3F8008728F44038C3F80087CCF3014C63
:102940009EF93080D3F800E754F82880BCF1020FDC
:102950000CBF4FF4403A4FF4003A05FA02F24EEA47
:102960000A0EC3F800E7C9F82025B8F1000F0BD014
:102970008909032900F06D81BCF1020F00F06B8121
:10298000BCF1030F00F0628194F96200421C46D052
:10299000C0F3C20204AB1A4400F0070312F8082C7B
:1029A00005FA03F31A42C1B200F03F0037D01F28E6
:1029B00000F2AE8002464FF0A04909EB820304EB1F
:1029C000000ED3F800C7D3F800879EF930E028F452
:1029D0004038C3F80087CCF3014CD3F800A754F873
:1029E0002E80BCF1020F0CBF4FF4403E4FF4003E6E
:1029F00005FA02F24EEA0A0EC3F800E7C9F82025EC
:102A0000B8F1000F0BD08909032900F01381BCF144
:102A1000020F00F02481BCF1030F00F0088194F94B
:102A20006300431C45D0C0F3C20204AB1A4400F05B
:102A3000070312F8082C05FA03F31A42C1B200F09A
:102A40003F0036D01F2867D802464FF0A04909EB57
:102A5000820304EB000ED3F800C7D3F8008728F4F4
:102A60004038C3F80087CCF3014C9EF93080D3F88E
:102A700000E754F82880BCF1020F0CBF4FF4403A35
:102A80004FF4003A05FA02F24EEA0A0EC3F800E7E4
:102A9000C9F82025B8F1000F0BD08909032900F0EF
:102AA000CE80BCF1020F00F0E280BCF1030F00F019
:102AB000C380D7F820250292C7F82025D6F8203504
:102AC0000393C6F8203513437FF4C8AE04B0BDE8C5
:102AD000F08701F01F02B146D9E601F01F02B146AE
:102AE00020E700BF00610040046100400861004031
:102AF0000C6100401061004014610040186100400A
:102B00001C6100407C61004008120020000300505E
:102B100001F01F02B14650E701F01F02B14696E7EF
:102B2000554AD2F8042312067FF559AE00221A60E6
:102B300019680091196E0098012903F1600346F0AD
:102B400080067FF450AE1A601B6801934FF0A042DC
:102B5000019BD2F82015494B0291C2F82015D3F8F9
:102B600020250392C3F8202546F000463CE6424A61
:102B7000D2F8042351067FF52DAE00221A601B689F
:102B80000093009B46F0400624E63B4AD2F804231B
:102B900090067FF51AAE00221A601B680093009B16
:102BA00046F0200611E6344AD2F80423D4067FF515
:102BB00007AE00221A601B680093009B46F01006C7
:102BC000FEE52D4AD2F8042315077FF5F4AD002267
:102BD0001A601B680093009B46F00806EBE5264A46
:102BE000D2F8042357077FF5E1AD00221A601B6875
:102BF0000093009B46F00406D8E51F4AD2F8042350
:102C000092077FF5CEAD00221A601B680093009BEF
:102C100046F00206C5E51849D1F8046316F001062E
:102C20003FF4BAAD136013680093009BB4E502292A
:102C30007FF4F5AEC047F2E602297FF43AAFC04711
:102C400037E702297FF455AEC04752E602297FF4E8
:102C50009BAEC04798E601297FF496AEF9E70129BB
:102C60007FF4DDAEE6E701297FF443AEECE701290E
:102C70007FF41FAFE3E700BF006000400003005097
:102C800059B142B1531E1A4005D182600160838060
:102C9000C26010467047092070470E20704700BF81
:102CA00010B48468C26803468088121B904203D225
:102CB00004205DF8044B7047DA681C68024000206D
:102CC000A154DA680132DA605DF8044B704700BF46
:102CD00003468068DA6890420DD010B498689A88EC
:102CE0001C6802400020A25C0A709A6801329A6057
:102CF0005DF8044B70470520704700BF30B504787D
:102D0000012C83B004D0022C2CD0ECB103B030BD28
:102D1000037A002B35D04368264D19782846FFF7F3
:102D2000BFFF00283AD0244B01901B688DF800406B
:102D300068469847A968EB68AA885B1A9A4220D22D
:102D40001E4B01221A70E1E71D491E48FFF7C0FF24
:102D5000F0B1194B03221B688DF800206846984794
:102D600003B030BDC36818491848019301228DF89B
:102D70000040FFF751FB104B68461B68984703B0B3
:102D800030BD114911480122FFF746FB03B030BDA9
:102D90000B490E480122FFF7D7FAB7E7AA68EB689C
:102DA0009A42C7D0044B8DF800001B6868469847CC
:102DB000C0E700BF781200207412002088120020A3
:102DC000A01200208C1200209C1200200400002081
:102DD0002DE9F0432B4C89B0226000294DD08A8820
:102DE00080460C46284809689946FFF749FF10B10C
:102DF00009B0BDE8F083A289A1682448FFF740FF2D
:102E00000028F5D1224D98F810C0D8F800700FCDE9
:102E10006C460FC495E80F0098F811500197BCF16B
:102E2000000C18BF4FF0010C002DD8E9026584E8B2
:102E30000F0014BF0E230023D8F804408DF815307E
:102E4000144AD8F8143014488DF81C906946CDE91E
:102E500002568DF814C00693009400F081F8002803
:102E6000C6D1D8F800300D4A01331070C0D00C49DB
:102E70000C480122FFF7D0FABAE7072009B0BDE8F5
:102E8000F08300BF74120020781200208C12002002
:102E90002C350000FD2C00000000002088120020CE
:102EA0009C1200200400002070B50B4D01460B4819
:102EB0002E78FFF70DFF04460EB9204670BD0023A3
:102EC000074908482B700122FFF7A6FA0028F4D022
:102ED000FFF782F8204670BD88120020781200208B
:102EE0009C1200200400002010B501460C48FFF79A
:102EF000D7FE044608B1204610BD0A48FFF77EFA07
:102F00000028F8D108490648FFF7E2FE0028F2D170
:102F1000BDE81040044903480122FFF715BA00BF7D
:102F20008C12002004000020A012002030B585B0D3
:102F3000047845688DF80040D0E90240064A074B06
:102F4000039053F82130019552F821108DF8084074
:102F50006846984705B030BDA4120020AC1200208E
:102F60002DE9F0430D46074616460FCD89B06C4655
:102F70000FC495E80F00DFF83880DFF838C0DFF8BD
:102F80003890354617F8046B002D84E80F0086460C
:102F9000694638460CBF2A46424649F826504CF846
:102FA00026E00496FFF7C6F809B0BDE8F08300BF3D
:102FB0002D2F0000A4120020AC1200200120FDF7EC
:102FC000BBB900BF08B5084C0320FDF791F9206894
:102FD000FEF742FB0320FDF79DF92068C0F10A00CF
:102FE000FEF73AFBF0E700BF0C00002008B5022016
:102FF000FDF7A2F94FF49670FEF72EFBF7E700BF3E
:10300000F0B50478022C85B03CD0012C3AD00CB13C
:1030100005B0F0BD2C4F2D4E0DF10300FFF744FF1E
:103020009DF80300FFF760FF3B789DF80320F25402
:103030002749013330463B7000F048FA054630B36B
:103040002046FDF755F9234B93E8070001AB03C376
:1030500023F8022B01AE120C1A70354604E015F865
:10306000010BFFF741FF0134304600F027FAA04280
:10307000F5D864220021154800F018FA00233B70AF
:1030800005B0F0BD4068FEF7A7FF05B0F0BD1249DE
:10309000304600F01BFA0028BAD02846FDF73AF96E
:1030A0000E4B93E8070001AE2C4686E80700354634
:1030B00004E015F8010BFFF717FF0134304600F06C
:1030C000FDF9A042F5D8D4E72C150020C414002047
:1030D0004C350000583500005435000064350000C0
:1030E00070B501208CB0FDF741F9FEF7D3FF002841
:1030F00049D1284D284B02930FCD06AC0FC495E85B
:10310000030084E80300254C254A4FF4807507230B
:1031100002A906A8CDE904450395FFF759FE214B06
:1031200021490126CDE90063A022002304461F485F
:10313000FDF772FF1E4B019302231E4900934FF4CB
:10314000827200231C48FDF767FF1C4B0093324638
:103150004FF47A7100231A48FEF7C6FE194B054654
:103160001860FEF73BF900230246009328463146DB
:10317000FEF706FF144A136943F0040313612CB9E8
:10318000FEF742F8FEE7FEF727FFB2E72046FEF71C
:1031900023FFF5E784350000B4120020B4130020AB
:1031A000013000002815002070350000ED2F0000D0
:1031B0003415002078350000C52F0000BD2F000019
:1031C0007C3500003015002000ED00E010B4814B8C
:1031D0001B68082B21D0804AD2F8883043F4700352
:1031E000C2F88830BFF34F8FBFF36F8F794B1B68E6
:1031F000082B00F0AA804FF01023D3F80022002AF9
:10320000C0F2B680D3F80432002BC0F2B180734B09
:10321000734A1A605DF8044B70474FF080414FF0DD
:1032200080520020C1F80C016E4BC1F81001C1F8AA
:103230003805D2F80414C3F82015D2F80814C3F8DE
:103240002415D2F80C14C3F82815D2F81014C3F8BA
:103250002C15D2F81414C3F83015D2F81814C3F88A
:103260003415D2F81C14C3F84015D2F82014C3F852
:103270004415D2F82414C3F84815D2F82814C3F81A
:103280004C15D2F82C14C3F85015D2F83014C3F8EA
:103290005415D2F83414C3F86015D2F83814C3F8B2
:1032A0006415D2F83C04C3F868054F49D2F84004CD
:1032B000C3F86C050968D2F84424C3F870250529C1
:1032C00037D84A4B5B5C13B1494B4A4A1A604A4BA8
:1032D0005B5C63B13F4B49491B68434AFB20C1F823
:1032E0001805082B11687FF476AF052921D8444BC7
:1032F0005B5C93B14348444B364C02681B682468BE
:10330000394922F00F0203F00F031343082C096818
:1033100003607FF460AF05290BD83C4B5B5C43B185
:103320002C4B3B4A1B684FF40071082B11607FF453
:1033300052AF4FF08043D3F80024D2077FF54BAF54
:103340006FF00102C3F8002445E7274B1B68052BEB
:1033500008D94FF010224FF08043D2F80822C3F86A
:10336000582548E72B4AD35C002B3FF444AFF0E7E5
:10337000294A0123C2F80435D2F80034002BFBD0CF
:103380004FF010231221244AC3F80012D2F800345F
:10339000002BFBD04FF0102312211F4AC3F8041258
:1033A000D2F80034002BFBD000231B49C2F80435AF
:1033B000D1F80034002BFBD0BFF34F8F0649174BD9
:1033C000CA6802F4E0621343CB60BFF34F8F00BFC3
:1033D000FDE700BF3001001000ED00E0100000200C
:1033E0000090D00300C0004034010010A43500005C
:1033F0008C56004048810300A435000000F00040D6
:10340000A4350000E40E004058020010A43500006E
:10341000409602409C35000000E001400400FA059F
:1034200008B5074B044613B10021AFF30080054BEC
:103430001868836A03B19847204600F05FF800BF20
:1034400000000000AC35000070B50D4D0D4C641B44
:10345000A4100026A64209D10B4D0C4C00F050F8E8
:10346000641BA4100026A64205D170BD55F8043B8C
:1034700098470136EEE755F8043B98470136F2E7E6
:1034800074000020740000207400002078000020E8
:103490000A44914200F1FF3300D1704710B511F892
:1034A000014B03F8014F9142F9D110BD024403468C
:1034B000934200D1704703F8011BF9E7034613F864
:1034C000012B002AFBD1181A01387047F0B50C788F
:1034D00064B103461A7818465E1C0AB9104605E026
:1034E000944208D10D4615F8012F02B9F0BD13F82A
:1034F000017F9742F7D03346ECE70000FEE700BFBC
:10350000F8B500BFF8BC08BC9E467047F8B500BFD0
:10351000F8BC08BC9E4670470D0E0F10546D7251DA
:1035200000000000546D722053766300FFFFFFFF20
:10353000FFFFFFFFFFFFFFFFFFFFFFFF0000000097
:10354000000000000000D6010600000068696768FE
:10355000000000006C6F77000D0A4C4544204F4E70
:103560000D0A00000D0A4C4544204F46460D0A0046
:103570004C4544320000000050574D004C4544314A
:103580000000000008000000060000000500000028
:1035900007000000000000000000D601000000004D
:1035A00001010000010000000000000014000020E4
:0435B0000000000017
:0835B4008CCCFF7F0100000038
:1035BC00000000000020004000000000010000009E
:1035CC000090D0030000000000000000000000008C
:1035DC0000000000000000000000000000000000DF
:1035EC0000000000000000000000000000000000CF
:1035FC0000000000000000000000000000000000BF
:10360C0000000000000000000000000000000000AE
:10361C00000000000000000000000000000000009E
:0C362C0000000000250200000102000068
:04000003000002B542
:00000001FF
